:100000000C942A000C9447000C9447000C94470071
:100010000C9447000C9447000C9447000C94F20E8B
:100020000C9447000C9447000C9447000C94470034
:100030000C9447000C9447000C9447000C94470024
:100040000C9447000C9447000C9447000C94470014
:100050000C94470011241FBECFE5D8E0DEBFCDBF12
:1000600010E0A0E6B0E0E8E8FAE502C005900D92E5
:10007000A83DB107D9F717E0A8EDB0E001C01D9287
:10008000A334B107E1F70E94040C0C94422D0C94A8
:100090000000DF93CF9300D0CDB7DEB789836A83AA
:1000A0008A81813009F06DC089818830A0F4ABE38A
:1000B000B0E0EBE3F0E08081482F8981282F30E029
:1000C00081E090E0022E02C0880F991F0A94E2F7A7
:1000D000842B8C93C8C089818830C8F08981803195
:1000E000B0F4A8E3B0E0E8E3F0E08081482F898134
:1000F000882F90E008979C0181E090E0022E02C0DA
:10010000880F991F0A94E2F7842B8C93ACC08981E5
:100110008031C8F089818831B0F4A5E3B0E0E5E32F
:10012000F0E08081482F8981882F90E040979C01E2
:1001300081E090E0022E02C0880F991F0A94E2F736
:10014000842B8C9390C08981883108F48CC089817C
:10015000803208F088C0A2E3B0E0E2E3F0E0808102
:10016000482F8981882F90E048979C0181E090E09A
:10017000022E02C0880F991F0A94E2F7842B8C93F9
:1001800072C08A81882309F06EC089818830A8F402
:10019000ABE3B0E0EBE3F0E08081482F8981282FCA
:1001A00030E081E090E0022E02C0880F991F0A948F
:1001B000E2F7809584238C9356C089818830D0F0F3
:1001C00089818031B8F4A8E3B0E0E8E3F0E0808111
:1001D000482F8981882F90E008979C0181E090E06A
:1001E000022E02C0880F991F0A94E2F7809584239B
:1001F0008C9339C089818031D0F089818831B8F4FD
:10020000A5E3B0E0E5E3F0E08081482F8981882F05
:1002100090E040979C0181E090E0022E02C0880FA0
:10022000991F0A94E2F7809584238C931CC08981DE
:100230008831C8F089818032B0F4A2E3B0E0E2E313
:10024000F0E08081482F8981882F90E048979C01B9
:1002500081E090E0022E02C0880F991F0A94E2F715
:10026000809584238C930F900F90CF91DF91089508
:10027000DF93CF9300D0CDB7DEB7898389818830F3
:1002800098F4E9E3F0E08081282F30E08981882F1D
:1002900090E0A90102C0559547958A95E2F7CA01F9
:1002A000582F51705A8350C089818830B8F08981A5
:1002B0008031A0F4E6E3F0E08081282F30E08981EE
:1002C000882F90E00897A90102C0559547958A9517
:1002D000E2F7CA01582F51705A8336C089818031A4
:1002E000B8F089818831A0F4E3E3F0E08081282F21
:1002F00030E08981882F90E04097A90102C0559590
:1003000047958A95E2F7CA01582F51705A831CC04D
:1003100089818831B8F089818032A0F4E0E3F0E08F
:100320008081282F30E08981882F90E04897A901AB
:1003300002C0559547958A95E2F7CA01582F51702A
:100340005A8302C088E08A838A810F900F90CF91F0
:10035000DF910895DF93CF9300D0CDB7DEB78983C7
:100360006A838A81882309F071C089818830A8F462
:10037000AAE3B0E0EAE3F0E08081482F8981282FEA
:1003800030E081E090E0022E02C0880F991F0A94AD
:10039000E2F7809584238C93C7C089818830D0F0A0
:1003A00089818031B8F4A7E3B0E0E7E3F0E0808131
:1003B000482F8981882F90E008979C0181E090E088
:1003C000022E02C0880F991F0A94E2F780958423B9
:1003D0008C93AAC089818031D0F089818831B8F4AA
:1003E000A4E3B0E0E4E3F0E08081482F8981882F26
:1003F00090E040979C0181E090E0022E02C0880FBF
:10040000991F0A94E2F7809584238C938DC089818B
:10041000883108F489C08981803208F085C0A1E361
:10042000B0E0E1E3F0E08081482F8981882F90E0FF
:1004300048979C0181E090E0022E02C0880F991F2E
:100440000A94E2F7809584238C936EC08A81813070
:1004500009F06AC089818830A0F4AAE3B0E0EAE339
:10046000F0E08081482F8981282F30E081E090E002
:10047000022E02C0880F991F0A94E2F7842B8C93F6
:1004800053C089818830C8F089818031B0F4A7E3F6
:10049000B0E0E7E3F0E08081482F8981882F90E089
:1004A00008979C0181E090E0022E02C0880F991FFE
:1004B0000A94E2F7842B8C9337C089818031C8F08D
:1004C00089818831B0F4A4E3B0E0E4E3F0E0808116
:1004D000482F8981882F90E040979C0181E090E02F
:1004E000022E02C0880F991F0A94E2F7842B8C9386
:1004F0001BC089818831C0F089818032A8F4A1E3D2
:10050000B0E0E1E3F0E08081482F8981882F90E01E
:1005100048979C0181E090E0022E02C0880F991F4D
:100520000A94E2F7842B8C930F900F90CF91DF9178
:100530000895DF93CF93CDB7DEB78AE060E00E94E5
:10054000AA0184E160E00E94AA01CF91DF910895A1
:10055000DF93CF930F92CDB7DEB78AE089838AE02D
:100560000E943801813019F482E0898307C084E158
:100570000E943801813011F481E0898389810F90D4
:10058000CF91DF910895EF92FF920F93DF93CF9376
:1005900000D0CDB7DEB79A83898383E061E040E085
:1005A0000E947B0F9093DD008093DC0083E061E08C
:1005B00040E00E947B0F9093DF008093DE0081E09B
:1005C0000E942B1090934207809341078BE393E0A6
:1005D00020E630E0E8EDF0E0B90146E950E020E047
:1005E00030E006E07F010E94551E81E593E02EE693
:1005F00030E0B90146E950E020E030E004E0EE24CC
:10060000FF240E94551E80ED93E02FE730E0B901F2
:1006100046E950E020E030E003E0EE24FF240E94B1
:10062000551E8AE595E020E930E0B90142E350E04B
:1006300020E030E002E0EE24FF240E94551E8FE40B
:1006400094E029E930E0B90146E950E020E030E0EB
:1006500001E0EE24FF240E94551E8091DA00909163
:10066000DB000E949C200F900F90CF91DF910F91A3
:10067000FF90EF900895DF93CF9300D0CDB7DEB712
:100680009A8389830E9499020E9445098DE061E066
:100690000E94AA018091D8009091D9000E949C20CC
:1006A000F1CFDF93CF9300D000D00F92CDB7DEB75C
:1006B0009D838C8382E390E00E947A2081E08B838B
:1006C0001A8219828A81882379F40E94A8028230D2
:1006D00059F40E94A80289838A818F5F8A838AE005
:1006E00090E00E947A20EECF8A81813039F58091A6
:1006F0004107909142076AE070E00E944B12882304
:1007000009F381E08B8311C08091DC009091DD00C2
:100710009E012D5F3F4FB90142E050E020E00E9472
:100720004B1084E190E00E947A200E94A802982F4A
:100730008981981749F382E08A83C4CF8A81823005
:10074000D9F4809141079091420760E070E040E069
:1007500050E020E00E944B101B828091DC009091C1
:10076000DD009E012D5F3F4FB90142E050E020E0E7
:100770000E944B101A82A6CF83E08B838091DC000D
:100780009091DD009E012D5F3F4FB90142E050E0A6
:1007900020E00E944B1084E190E00E947A2092CFEA
:1007A000DF93CF9300D000D00F92CDB7DEB79D83FB
:1007B0008C838CE390E00E947A2081E08B831A8204
:1007C00019828A81882379F40E94A802813059F421
:1007D0000E94A80289838A818F5F8A838AE090E0E1
:1007E0000E947A20EECF8A81813039F580914107CD
:1007F000909142076AE070E00E944B12882309F34F
:1008000081E08B8311C08091DE009091DF009E011A
:100810002D5F3F4FB90142E050E020E00E944B10B5
:1008200084E190E00E947A200E94A802982F89819A
:10083000981749F382E08A83C4CF8A818230D9F441
:10084000809141079091420760E070E040E050E005
:1008500020E00E944B101B828091DE009091DF000F
:100860009E012D5F3F4FB90142E050E020E00E9421
:100870004B101A82A6CF83E08B838091DE0090918B
:10088000DF009E012D5F3F4FB90142E050E020E0C4
:100890000E944B1084E190E00E947A2092CFDF9377
:1008A000CF93CDB7DEB7C054D0400FB6F894DEBFBB
:1008B0000FBECDBF9CA78BA784E690E00E947A2054
:1008C0001A821B821982CE0104969EA78DA7E2EAA6
:1008D000F0E0F8ABEFA7FCE0F9ABEFA5F8A90080DA
:1008E0008FA598A9019698AB8FA7EDA5FEA50082CC
:1008F0008DA59EA501969EA78DA799A9915099AB0C
:10090000E9A9EE2351F7CE0140969BAB8AABEEEA04
:10091000F0E0FDABECABFCE0FEABECA9FDA9008088
:100920008CA99DA901969DAB8CABEAA9FBA900827D
:100930008AA99BA901969BAB8AAB9EA991509EABBD
:10094000EEA9EE2351F7CE014C9698AF8FABEAEBB0
:10095000F0E0FAAFE9AFF7E0FBAFE9ADFAAD008048
:1009600089AD9AAD01969AAF89AFEFA9F8AD008233
:100970008FA998AD019698AF8FAB9BAD91509BAF6F
:10098000EBADEE2351F7CE0183969DAF8CAFE1EC3A
:10099000F0E0FFAFEEAFF8E02196FFAF2197EEADAC
:1009A000FFAD00808EAD9FAD01969FAF8EAFECADD9
:1009B000FDAD00828CAD9DAD01969DAF8CAF2196B3
:1009C0009FAD2197915021969FAF21972196EFAD32
:1009D0002197EE2321F78091DC009091DD009E01AC
:1009E0002E5F3F4FB90141E050E00E94A01180917D
:1009F000DE009091DF009E012D5F3F4FB90141E085
:100A000050E00E94A0118A818130F1F4898188230D
:100A100029F40E94C40A81E0898347C0898181301A
:100A200009F043C09E01245E3F4F80E060E0A901D1
:100A30000E94AB0A9E012C5F3F4F81E065E0A90157
:100A40000E94AB0A1A8231C08B818130E9F489811E
:100A5000882329F40E94C40A82E0898326C0898100
:100A6000823019F59E01245E3F4F80E060E0A901CD
:100A70000E94AB0A9E01205F3F4F81E065E0A90123
:100A80000E94AB0A1B8211C08981813019F08981D3
:100A9000823059F40E94C40A9E012D5D3F4F80E0D0
:100AA00060E0A9010E94AB0A198284E190E00E94F3
:100AB0007A2091CFDF93CF9300D0CDB7DEB79A8362
:100AC0008983809141079091420761E070E00E9424
:100AD0004B12882381F08DE060E00E9449008091F4
:100AE00041079091420760E070E040E050E020E074
:100AF0000E944B1004C08DE061E00E9449008AE032
:100B000090E00E947A20DDCFDF93CF9300D0CDB765
:100B1000DEB78BE090E00E94C9089A8389838981BF
:100B20009A81009749F0E981FA81118210828981C6
:100B30009A8102960E94CE0A89819A810F900F9025
:100B4000CF91DF910895DF93CF93CDB7DEB7609754
:100B50000FB6F894DEBF0FBECDBF9A8789877C871A
:100B60006B875E874D87388B2F8789859A859C8315
:100B70008B8319820E944722EB81FC8180819181C5
:100B800098878F8389859A852B853C85B9010E943A
:100B90007A072F8138858B859C85282B392B8D856D
:100BA0009E85282339238D859E8528173907C9F40A
:100BB0002F8138858B859C85822B932B9E838D83FB
:100BC000EB81FC81208131818D859E85809590957A
:100BD00082239323EB81FC8191838083188A1F8673
:100BE0001EC08F859889009791F08B819C81BC01F4
:100BF0006E5F7F4F8D859E859C0135604F8558893E
:100C0000CB01B9010E94B7241E821D8208C0EB816E
:100C1000FC81808191819E838D8381E089830E9404
:100C200053228A838F859889009709F43AC08A8174
:100C3000882311F40E94E00D0E94CF289E838D83AB
:100C40008D819E8180709270009731F50FB6F89477
:100C50000F92EB81FC81808191819E838D832D8118
:100C60003E818D859E85282339238D859E85281775
:100C7000390771F4EB81FC81208131818D859E855E
:100C80008095909582239323EB81FC8191838083CF
:100C90000F900FBE81E089838D819E8190709E832D
:100CA0008D838D819E8160960FB6F894DEBF0FBE56
:100CB000CDBFCF91DF9108950F931F93DF93CF9313
:100CC000CDB7DEB763970FB6F894DEBF0FBECDBFCA
:100CD0009D878C877F876E87488B298B1B8B0A8B20
:100CE0008C859D859B878A871F821E821B820E941E
:100CF0004722EA85FB85808191819A838983898156
:100D00009A812E853F85B90149890E9497088D8374
:100D10008D818823C1F089819A81998788871B8A70
:100D20001A8A88898823E9F1EA85FB852081318147
:100D30008E859F858095909582239323EA85FB85F8
:100D4000918380832EC08A899B89009739F4898199
:100D50009A819987888781E08B8323C0888988233B
:100D600029F08E819F8191609F838E83898988235A
:100D700029F08E819F8194609F838E838A859B85D5
:100D8000BC016E5F7F4F2E853F858E819F81282B12
:100D9000392B4A895B89CB01B9010E94B724198696
:100DA00018860E9453228C838A899B89009709F4B4
:100DB0003CC08C81882311F40E94E00D0E94CF2852
:100DC000998788878885998580709270009741F50A
:100DD0000FB6F8940F92EA85FB85808191819987FF
:100DE0008887888599852E853F85B90149890E9424
:100DF0009708882389F08889882371F0EA85FB8524
:100E0000208131818E859F858095909582239323C3
:100E1000EA85FB859183808381E08B830F900FBEF1
:100E20008885998590709987888788859985639644
:100E30000FB6F894DEBF0FBECDBFCF91DF911F91EB
:100E40000F910895DF93CF93CDB7DEB728970FB6F4
:100E5000F894DEBF0FBECDBF9E838D8378876F83EE
:100E60008D819E819C838B830FB6F8940F92EB81CA
:100E7000FC81808191819A838983EB81FC8120812F
:100E800031818F8198858095909582239323EB8182
:100E9000FC81918380830F900FBE89819A8128966F
:100EA0000FB6F894DEBF0FBECDBFCF91DF9108958E
:100EB000DF93CF93CDB7DEB727970FB6F894DEBF99
:100EC0000FBECDBF9F838E838E819F819C838B833A
:100ED0001D82EB81FC81808191819A838983898144
:100EE0009A8127960FB6F894DEBF0FBECDBFCF9183
:100EF000DF910895DF93CF93CDB7DEB765970FB637
:100F0000F894DEBF0FBECDBF9B8B8A8B7D8B6C8B25
:100F1000198618868A899B899B838A8319828A818C
:100F20009B8102969B878A878A859B8503969D87EE
:100F30008C870E944722EA85FB8585819681998B63
:100F4000888BEA81FB81208131818C899D89822B6C
:100F5000932BEA81FB819183808359C0E889F989C9
:100F6000828193819F878E87E889F9898081918129
:100F70009F838E8319828E819F8180709D838C8355
:100F80008E819F8190709F838E838C819D818070E4
:100F90009470009769F4EA81FB81208131818E8110
:100FA0009F8182239323009791F081E089830FC072
:100FB000EA81FB81208131818E819F812823392321
:100FC0008E819F812817390711F481E089838981F7
:100FD0008823C9F08C819D8180709170009741F0C9
:100FE000888599852E813F81822B932B99878887CD
:100FF000EA81FB81808191819C0132608889998995
:10100000B9010E9452258E859F85998B888B2889EE
:1010100039898C859D852817390709F09FCFEA818A
:10102000FB812081318188859985809590958223E7
:101030009323EA81FB81918380830E945322EA817A
:10104000FB818081918165960FB6F894DEBF0FBE5B
:10105000CDBFCF91DF910895DF93CF9300D000D023
:1010600000D0CDB7DEB79E838D838D819E819C831A
:101070008B838B819C8102969A8389830E9447226D
:1010800008C0E981FA818581968160E072E00E9462
:101090005225E981FA818081882399F78B819C818F
:1010A0000E941F090E94532226960FB6F894DEBFB5
:1010B0000FBECDBFCF91DF910895DF93CF9300D0C6
:1010C00000D000D0CDB7DEB79A8389834B835C8391
:1010D0006D837E8389819A812B813C81B9010E9435
:1010E0007A0726960FB6F894DEBF0FBECDBFCF911C
:1010F000DF910895DF93CF9300D000D000D0CDB71B
:10110000DEB79A8389834B835C836D837E83898179
:101110009A812B813C81B9010E94220726960FB645
:10112000F894DEBF0FBECDBFCF91DF910895DF935E
:10113000CF9300D000D000D0CDB7DEB79B838A8399
:101140007D836C834E8319828E81882359F48A8132
:101150009B812C813D8182239323009781F081E044
:1011600089830DC02A813B818C819D81282339236D
:101170008C819D812817390711F481E08983898149
:1011800026960FB6F894DEBF0FBECDBFCF91DF918C
:101190000895DF93CF9300D000D0CDB7DEB79C8306
:1011A0008B831A8219820E9447228091E2009091DB
:1011B000E300009731F485EE90E09093E300809394
:1011C000E2008091E0009091E1002B813C81820F50
:1011D000931F25E08B3D920738F52091E000309178
:1011E000E1008B819C81280F391F8091E000909154
:1011F000E10082179307C0F42091E2003091E300F0
:101200008091E0009091E100820F931F9A8389837F
:101210002091E0003091E1008B819C81820F931F2F
:101220009093E1008093E0000E94532289819A818B
:101230000F900F900F900F90CF91DF910895DF9353
:10124000CF9300D0CDB7DEB79A8389830F900F90EC
:10125000CF91DF910895DF93CF93CDB7DEB7109292
:10126000E1001092E000CF91DF910895DF93CF93DA
:10127000CDB7DEB72091E0003091E1008BED95E035
:10128000821B930BCF91DF910895DF93CF93CDB75E
:10129000DEB7AAE3B0E0EAE3F0E080818E608C93F1
:1012A000AAE3B0E0EAE3F0E08081806F8C9382E013
:1012B0000E94660988E20E9466098CE00E94660925
:1012C00081E00E946609CF91DF910895DF93CF936B
:1012D0000F92CDB7DEB78983ABE3B0E0EBE3F0E08C
:1012E00080818D7F8C93ABE3B0E0EBE3F0E0808115
:1012F0008B7F8C9381E090E00E947A20ABE3B0E09A
:10130000EBE3F0E0808188608C9381E090E00E94C4
:101310007A20ABE3B0E0EBE3F0E08081982F9F70A0
:101320008981807F892B8C9381E090E00E947A20D4
:10133000ABE3B0E0EBE3F0E08081877F8C9381E06A
:1013400090E00E947A20ABE3B0E0EBE3F0E0808134
:1013500088608C9381E090E00E947A20ABE3B0E05B
:10136000EBE3F0E08081282F2F708981882F90E0B7
:1013700082959295907F9827807F9827822B8C93D7
:1013800081E090E00E947A20ABE3B0E0EBE3F0E094
:101390008081877F8C9381E090E00E947A200F907B
:1013A000CF91DF910895DF93CF930F92CDB7DEB742
:1013B0008983ABE3B0E0EBE3F0E0808182608C9363
:1013C000ABE3B0E0EBE3F0E080818B7F8C9381E0D6
:1013D00090E00E947A20ABE3B0E0EBE3F0E08081A4
:1013E00088608C9381E090E00E947A20ABE3B0E0CB
:1013F000EBE3F0E08081982F9F708981807F892BBB
:101400008C9381E090E00E947A20ABE3B0E0EBE3C4
:10141000F0E08081877F8C9381E090E00E947A20C9
:10142000ABE3B0E0EBE3F0E0808188608C9381E097
:1014300090E00E947A20ABE3B0E0EBE3F0E0808143
:10144000282F2F708981882F90E082959295907F28
:101450009827807F9827822B8C9381E090E00E94D0
:101460007A20ABE3B0E0EBE3F0E08081877F8C9300
:1014700081E090E00E947A200F90CF91DF91089553
:10148000DF93CF9300D00F92CDB7DEB79B838A83D3
:1014900019820EC08981282F30E08A819B81FC014E
:1014A000E20FF31F80810E94D30989818F5F8983B6
:1014B0008981282F30E08A819B81FC01E20FF31F94
:1014C0008081882339F70F900F900F90CF91DF9193
:1014D0000895DF93CF9300D000D00F92CDB7DEB741
:1014E0008A836B838A81282F30E03D832C838C8113
:1014F0009D8181309105C1F02C813D8122303105E3
:101500002CF48C819D81009761F019C02C813D8164
:101510002230310569F08C819D818330910561F025
:101520000EC08B8189830BC08B81805C898307C04F
:101530008B81805F898303C08B81805B89838981F4
:1015400080680E9466090F900F900F900F900F9087
:10155000CF91DF910895DF93CF9300D000D0CDB726
:10156000DEB789836A835C834B8389816A810E94A9
:10157000690A8B819C810E94400A0F900F900F9006
:101580000F90CF91DF910895DF93CF93CDB7DEB762
:1015900081E00E946609CF91DF910895DF93CF9398
:1015A00000D0CDB7DEB79A83898389819A8103966B
:1015B000E981FA8192838183E981FA818FEF9FEF3C
:1015C0009483838389819A810396E981FA81968342
:1015D000858389819A810396E981FA81908787833F
:1015E000E981FA8110820F900F90CF91DF910895D9
:1015F000DF93CF9300D0CDB7DEB79A838983E9819B
:10160000FA81118610860F900F90CF91DF91089587
:10161000DF93CF9300D000D000D0CDB7DEB79C834E
:101620008B837E836D83EB81FC81818192819A83A0
:101630008983ED81FE8189819A8193838283E98107
:10164000FA8184819581ED81FE8195838483E9818E
:10165000FA810480F581E02D8D819E8193838283C0
:10166000E981FA818D819E8195838483ED81FE815C
:101670008B819C8191878087EB81FC8180818F5F4A
:10168000EB81FC81808326960FB6F894DEBF0FBEF7
:10169000CDBFCF91DF910895DF93CF93CDB7DEB764
:1016A00028970FB6F894DEBF0FBECDBF9E838D8303
:1016B00078876F83EF81F885808191819A83898310
:1016C00089819A812FEF8F3F920739F4ED81FE8156
:1016D000878190859C838B8318C08D819E81039622
:1016E0009C838B8306C0EB81FC81828193819C83E8
:1016F0008B83EB81FC810280F381E02D208131819D
:1017000089819A818217930770F7EB81FC8182812E
:101710009381EF81F88593838283EF81F88502803E
:10172000F381E02D8F81988595838483EF81F885FF
:101730008B819C8195838483EB81FC818F8198854B
:1017400093838283EF81F8858D819E819187808745
:10175000ED81FE8180818F5FED81FE8180832896FF
:101760000FB6F894DEBF0FBECDBFCF91DF910895C5
:10177000DF93CF9300D000D0CDB7DEB79C838B83AF
:10178000EB81FC81808591859A838983EB81FC8143
:10179000A281B381EB81FC818481958115969C9314
:1017A0008E931497EB81FC81A481B581EB81FC8140
:1017B0008281938113969C938E931297E981FA818B
:1017C000218132818B819C812817390741F4EB817B
:1017D000FC8184819581E981FA8192838183EB8107
:1017E000FC8111861086E981FA8180818150E9812E
:1017F000FA818083E981FA8180810F900F900F90A8
:101800000F90CF91DF910895EF92FF920F93DF93A6
:10181000CF93CDB7DEB783EC92E029EC30E0EAED70
:10182000F0E0B90146E950E020E030E005E07F015A
:101830000E94551E8CE061E00E94AA010E940922CC
:10184000FFCFDF93CF93CDB7DEB728970FB6F894CD
:10185000DEBF0FBECDBF9C838B837E836D83588795
:101860004F83EB81FC8181E180838B819C81019797
:101870009C838B83EB81FC8182E280838B819C81C2
:1018800001979C838B83EB81FC8183E380838B8135
:101890009C8101979C838B838D819E819A83898310
:1018A0008981EB81FC8180838B819C8101979C8362
:1018B0008B8389819A81892F99279A83898389814A
:1018C000EB81FC8180838B819C8101979C838B833E
:1018D000EB81FC8110828B819C8101979C838B839F
:1018E000EB81FC8180E880838B819C8101979C83C4
:1018F0008B83EB81FC8110828B819C8101979C837F
:101900008B83EB81FC8182E080838B819C810197BA
:101910009C838B83EB81FC8183E080838B819C8122
:1019200001979C838B83EB81FC8184E080838B8196
:101930009C8101979C838B83EB81FC8185E0808374
:101940008B819C8101979C838B83EB81FC8186E05A
:1019500080838B819C8101979C838B83EB81FC81AD
:1019600087E080838B819C8101979C838B83EB81B3
:10197000FC8188E080838B819C8101979C838B8391
:10198000EB81FC8189E080838B819C8101979C8322
:101990008B83EB81FC8180E180838B819C8101972B
:1019A0009C838B83EB81FC8181E180838B819C8193
:1019B00001979C838B83EB81FC8182E180838B8107
:1019C0009C8101979C838B83EB81FC8183E18083E5
:1019D0008B819C8101979C838B83EB81FC8184E1CB
:1019E00080838B819C8101979C838B83EB81FC811D
:1019F00085E180838B819C8101979C838B83EB8124
:101A0000FC8186E180838B819C8101979C838B8301
:101A1000EB81FC8187E180838B819C8101979C8392
:101A20008B83EB81FC8188E180838B819C81019792
:101A30009C838B83EB81FC8189E180838B819C81FA
:101A400001979C838B83EB81FC8180E280838B8177
:101A50009C8101979C838B83EB81FC8181E2808355
:101A60008B819C8101979C838B83EB81FC8182E23B
:101A700080838B819C8101979C838B83EB81FC818C
:101A800083E280838B819C8101979C838B838F81F0
:101A900098859A8389838981EB81FC8180838B81FE
:101AA0009C8101979C838B8389819A81892F9927B7
:101AB0009A8389838981EB81FC8180838B819C81DE
:101AC00001979C838B83EB81FC8186E280838B81F1
:101AD0009C8101979C838B83EB81FC8187E28083CF
:101AE0008B819C8101979C838B83EB81FC8188E2B5
:101AF00080838B819C8101979C838B83EB81FC810C
:101B000089E280838B819C8101979C838B83EB810D
:101B1000FC8180E380838B819C8101979C838B83F4
:101B2000EB81FC8181E380838B819C8101979C8385
:101B30008B838B819C8128960FB6F894DEBF0FBEF5
:101B4000CDBFCF91DF910895DF93CF93CDB7DEB7AF
:101B50000E94960EA091C006B091C106CD91CDBF56
:101B6000DD91DEBFFF91EF91DF91CF91BF91AF91FA
:101B70009F918F917F916F915F914F913F912F91A5
:101B80001F910F91FF90EF90DF90CF90BF90AF909B
:101B90009F908F907F906F905F904F903F902F908D
:101BA0001F900F900FBE0F90089581E0CF91DF91AD
:101BB0000895DF93CF93CDB7DEB7CF91DF9108952E
:101BC0000F920FB6F8940F921F9211242F923F920A
:101BD0004F925F926F927F928F929F92AF92BF923D
:101BE000CF92DF92EF92FF920F931F932F933F9329
:101BF0004F935F936F937F938F939F93AF93BF9315
:101C0000CF93DF93EF93FF93A091C006B091C106ED
:101C10000DB60D920EB60D920E942824A091C0061A
:101C2000B091C106CD91CDBFDD91DEBFFF91EF91A7
:101C3000DF91CF91BF91AF919F918F917F916F91E4
:101C40005F914F913F912F911F910F91FF90EF90D6
:101C5000DF90CF90BF90AF909F908F907F906F90CC
:101C60005F904F903F902F901F900F900FBE0F905E
:101C700008950F920FB6F8940F921F9211242F928D
:101C80003F924F925F926F927F928F929F92AF920C
:101C9000BF92CF92DF92EF92FF920F931F932F93F9
:101CA0003F934F935F936F937F938F939F93AF93E4
:101CB000BF93CF93DF93EF93FF93A091C006B091B2
:101CC000C1060DB60D920EB60D920E9443238823D5
:101CD00011F00E942824A091C006B091C106CD91B8
:101CE000CDBFDD91DEBFFF91EF91DF91CF91BF912D
:101CF000AF919F918F917F916F915F914F913F91A4
:101D00002F911F910F91FF90EF90DF90CF90BF9098
:101D1000AF909F908F907F906F905F904F903F908B
:101D20002F901F900F900FBE0F900895DF93CF93C9
:101D300000D000D000D0CDB7DEB780E49FE1A0E0B6
:101D4000B0E08B839C83AD83BE838B819C81AD810E
:101D5000BE81689415F8B695A795979587951694C2
:101D6000D1F78B839C83AD83BE838B819C81AD81B6
:101D7000BE810197A109B1098B839C83AD83BE838A
:101D80008B8189838B819C81AD81BE81892F9A2F24
:101D9000AB2FBB278B839C83AD83BE838B818A83D0
:101DA000EBE4F0E08A818083EAE4F0E089818083DB
:101DB0008BE08983EEE4F0E089818083E9E5F0E05F
:101DC00080818983898180618983E9E5F0E0898167
:101DD000808326960FB6F894DEBF0FBECDBFCF919D
:101DE000DF9108950E94390E1895DF93CF9300D0AC
:101DF00000D00F92CDB7DEB79C838B836D838B8130
:101E00009C819A8389830FB6F8940F92E981FA81B5
:101E100040815181E981FA81838D282F30E0E98169
:101E2000FA81848D882F90E0BC01269FC001279FF6
:101E3000900D369F900D1124840F951FE981FA8132
:101E400095838483E981FA81128EE981FA81808108
:101E50009181E981FA8193838283E981FA814081CA
:101E60005181E981FA81838D882F90E09C01215076
:101E70003040E981FA81848D882F90E0BC01269F53
:101E8000C001279F900D369F900D1124840F951F40
:101E9000E981FA8197838683E981FA818FEF858FC3
:101EA000E981FA818FEF868F8D81882379F4E9812A
:101EB000FA8180858823A1F089819A8108960E9401
:101EC000E724882369F00E94E00D0AC089819A8185
:101ED00008960E94CE0A89819A8141960E94CE0A74
:101EE0000F900FBE81E00F900F900F900F900F900A
:101EF000CF91DF9108950F931F93DF93CF93CDB7C9
:101F0000DEB729970FB6F894DEBF0FBECDBF8F8323
:101F1000688749878885882319F41C821B8210C032
:101F20008F81282F30E08885882F90E0AC01249F96
:101F3000C001259F900D349F900D11249C838B83AD
:101F40008B819C814F960E94C9089E838D838D81D1
:101F50009E810097A1F08D819E819A8389838981DA
:101F60009A814F969A83898329813A81ED81FE81F6
:101F70008F816885A90129858F010E94CC0F8D81F1
:101F80009E8129960FB6F894DEBF0FBECDBFCF91CC
:101F9000DF911F910F9108950F931F93DF93CF93BC
:101FA000CDB7DEB727970FB6F894DEBF0FBECDBF13
:101FB00089836A835C834B832D831F830E838A818D
:101FC000882339F48E819F81EE81FF819183808304
:101FD00006C08B819C81EE81FF8191838083EE819D
:101FE000FF818981838FEE81FF818A81848F8E8139
:101FF0009F8161E00E94F50E27960FB6F894DEBF30
:102000000FBECDBFCF91DF911F910F910895DF9348
:10201000CF9300D0CDB7DEB79A83898389819A8127
:102020000097A1F0E981FA8115821482E981FA8191
:1020300011821082E981FA81168289819A8160E099
:1020400070E040E050E020E00E944B100F900F90B5
:10205000CF91DF910895DF93CF9300D000D00F92FE
:10206000CDB7DEB78D8381E08A8319828A81698149
:102070004D810E947B0F9C838B838B819C810E946E
:1020800007108B819C810F900F900F900F900F90F5
:10209000CF91DF910895DF93CF93CDB7DEB72F9720
:1020A0000FB6F894DEBF0FBECDBF998788877B87B8
:1020B0006A875D874C872E871C82888599859A83DD
:1020C00089830FB6F8940F92E981FA81928DE981A4
:1020D000FA81838D981718F08E85823011F58981E9
:1020E0009A812A853B85B9014E850E94F1148B8324
:1020F000E981FA818189882351F089819A81419609
:102100000E94E724882341F00E94E00D05C08B81E6
:10211000882311F00E94E00D0F900FBE81E08F87A1
:102120005CC08C859D85009721F40F900FBE1F86A3
:1021300054C08C81882331F4CE0105960E94CD25B0
:1021400081E08C830F900FBE0E9447220FB6F89457
:102150000F92E981FA81858D8F3F19F4E981FA8127
:10216000158EE981FA81868D8F3F19F4E981FA8114
:10217000168E0F900FBECE0105969E01245F3F4F35
:10218000B9010E94E625882309F589819A810E9478
:102190007F168823A1F089819A8108962C853D8538
:1021A000B9010E94952489819A810E94F0150E94AC
:1021B0005322882309F085CF0E94E00D82CF8981C8
:1021C0009A810E94F0150E9453227BCF89819A81C7
:1021D0000E94F0150E9453221F868F852F960FB6FE
:1021E000F894DEBF0FBECDBFCF91DF910895DF938E
:1021F000CF93CDB7DEB72C970FB6F894DEBF0FBEE6
:10220000CDBF9F838E83798768875B874A872C87BA
:102210008E819F819B838A831C82EA81FB81928DC0
:10222000EA81FB81838D981718F08C85823061F5E7
:10223000EA81FB81868D89838A819B812885398506
:10224000B9014C850E94F11489818F3FA9F4EA817C
:10225000FB8181898823A9F08A819B8141960E9414
:10226000E724882371F08A859B85009751F0EA85E1
:10227000FB8581E0808305C089818F5FEA81FB81D6
:10228000868F81E08D8301C01D828D812C960FB6D3
:10229000F894DEBF0FBECDBFCF91DF910895DF93DD
:1022A000CF93CDB7DEB72A970FB6F894DEBF0FBE37
:1022B000CDBF98878F837A8769878F8198859C8324
:1022C0008B831D82EB81FC81828D8A83EB81FC8173
:1022D000938D8A81891748F5EB81FC81868D8983EE
:1022E0008A818F5FEB81FC81828F89818F3FA9F486
:1022F000EB81FC8181898823A9F08B819C814196A7
:102300000E94E724882371F089859A85009751F00F
:10231000E985FA8581E0808305C089818F5FEB8143
:10232000FC81868F81E08E8301C01E828E812A9679
:102330000FB6F894DEBF0FBECDBFCF91DF910895E9
:10234000DF93CF93CDB7DEB72E970FB6F894DEBFED
:102350000FBECDBF998788877B876A875D874C874B
:102360001C82888599859B838A830FB6F8940F9287
:10237000EA81FB81828D898389818823F9F08A81B2
:102380009B812A853B85B9010E94A91589818150CD
:10239000EA81FB81828FEA81FB818085882349F075
:1023A0008A819B8108960E94E724882311F00E946D
:1023B000E00D0F900FBE81E08E8763C08C859D85F8
:1023C000009721F40F900FBE1E865BC08C8188237E
:1023D00031F4CE0105960E94CD2581E08C830F90CB
:1023E0000FBE0E9447220FB6F8940F92EA81FB813C
:1023F000858D8F3F19F4EA81FB81158EEA81FB817F
:10240000868D8F3F19F4EA81FB81168E0F900FBEE7
:10241000CE0105969E01245F3F4FB9010E94E6253B
:10242000882309F58A819B810E9443168823A1F0A5
:102430008A819B8141962C853D85B9010E94952416
:102440008A819B810E94F0150E945322882309F003
:102450008CCF0E94E00D89CF8A819B810E94F0156C
:102460000E94532282CF8A819B810E94F0150E9494
:1024700053228A819B810E944316882309F475CFD9
:102480001E868E852E960FB6F894DEBF0FBECDBF8A
:10249000CF91DF910895DF93CF93CDB7DEB72E971D
:1024A0000FB6F894DEBF0FBECDBF9B878A877D87AE
:1024B0006C871E828A859B859D838C831B820FB6C9
:1024C000F8940F92EC81FD81828D8A838A81882322
:1024D00021F18A818150EC81FD81828FEC81FD8127
:1024E00080819181009731F40E94F628EC81FD8172
:1024F00095838483EC81FD818085882349F08C81DC
:102500009D8108960E94E724882311F00E94E00D27
:102510000F900FBE81E08E8789C08C859D850097C6
:1025200021F40F900FBE1E8681C08E81882331F466
:10253000CE0107960E94CD2581E08E830F900FBEBD
:102540000E9447220FB6F8940F92EC81FD81858D91
:102550008F3F19F4EC81FD81158EEC81FD81868D14
:102560008F3F19F4EC81FD81168E0F900FBECE01C6
:1025700007969E01245F3F4FB9010E94E6258823FC
:1025800099F58C819D810E944316882331F1EC815D
:10259000FD8180819181009761F40FB6F8940F92CC
:1025A000EC81FD81848195810E942A278B830F9085
:1025B0000FBE8C819D8141962C853D85B9010E947D
:1025C00095248C819D810E94F0150E9453228823BE
:1025D00009F075CF0E94E00D72CF8C819D810E9421
:1025E000F0150E9453226BCF8C819D810E94F015C3
:1025F0000E9453228C819D810E944316882309F4F6
:102600005ECF8B81882389F00FB6F8940F928C816E
:102610009D810E94D0148983EC81FD818481958104
:1026200069810E943A280F900FBE1E868E852E96D5
:102630000FB6F894DEBF0FBECDBFCF91DF910895E6
:10264000DF93CF93CDB7DEB760970FB6F894DEBFB8
:102650000FBECDBF9B878A877D876C875F874E873C
:102660001E828A859B859B838A830FB6F8940F927E
:10267000EA81FB81828D89838981882331F1EA8116
:10268000FB81868197819D838C838A819B812C85A8
:102690003D85B9010E94A915EA81FB818C819D814C
:1026A00097838683EA81FB818189882349F08A8127
:1026B0009B8141960E94E724882311F00E94E00D3F
:1026C0000F900FBE81E0888B63C08E859F85009739
:1026D00021F40F900FBE188A5BC08E81882331F4DD
:1026E000CE0107960E94CD2581E08E830F900FBE0C
:1026F0000E9447220FB6F8940F92EA81FB81858DE4
:102700008F3F19F4EA81FB81158EEA81FB81868D6A
:102710008F3F19F4EA81FB81168E0F900FBECE0118
:1027200007969E01225F3F4FB9010E94E62588234C
:1027300009F58A819B810E9443168823A1F08A8132
:102740009B8141962E853F85B9010E9495248A81FF
:102750009B810E94F0150E945322882309F085CFA7
:102760000E94E00D82CF8A819B810E94F0150E9419
:1027700053227BCF8A819B810E94F0150E945322B5
:102780008A819B810E944316882309F46ECF188AA0
:10279000888960960FB6F894DEBF0FBECDBFCF918B
:1027A000DF910895DF93CF93CDB7DEB72C970FB6A7
:1027B000F894DEBF0FBECDBF98878F837A87698775
:1027C0005C874B878F8198859C838B831D82EB81EF
:1027D000FC81828D8A838A81882381F1EB81FC814F
:1027E000858D89838B819C8129853A85B9010E94D9
:1027F000A9158A818150EB81FC81828F89818F3F6D
:10280000A9F4EB81FC8180858823A9F08B819C81D0
:1028100008960E94E724882371F08B859C85009799
:1028200051F0EB85FC8581E0808305C089818F5F55
:10283000EB81FC81858F81E08E8301C01E828E81B9
:102840002C960FB6F894DEBF0FBECDBFCF91DF91AF
:102850000895DF93CF93CDB7DEB72A970FB6F894DC
:10286000DEBF0FBECDBF98878F837A8769878F8140
:1028700098859A8389831D82E981FA81828D8823D4
:10288000B1F0E981FA81868197819C838B8389816C
:102890009A8129853A85B9010E94A915E981FA81B1
:1028A0008B819C819783868381E08E8301C01E8209
:1028B0008E812A960FB6F894DEBF0FBECDBFCF91A2
:1028C000DF910895DF93CF9300D00F92CDB7DEB79D
:1028D0009B838A830FB6F8940F92EA81FB81828DE5
:1028E00089830F900FBE89810F900F900F90CF9129
:1028F000DF910895DF93CF9300D000D00F92CDB732
:10290000DEB79D838C838C819D819A8389830FB6EA
:10291000F8940F92E981FA81938DE981FA81828D91
:10292000292F281B822F8B830F900FBE8B810F9036
:102930000F900F900F900F90CF91DF910895DF933C
:10294000CF9300D000D00F92CDB7DEB79D838C839C
:102950008C819D819A838983E981FA81828D8B8321
:102960008B810F900F900F900F900F90CF91DF9170
:102970000895DF93CF9300D000D0CDB7DEB79C830E
:102980008B838B819C819A83898389819A810E9420
:102990001F090F900F900F900F90CF91DF91089526
:1029A000DF93CF9300D00F92CDB7DEB79B838A839E
:1029B000EA81FB818189882361F0EA81FB810688B5
:1029C000F789E02D80819181982F87E0891B898389
:1029D00001C0198289810F900F900F90CF91DF91E4
:1029E0000895DF93CF93CDB7DEB727970FB6F8944E
:1029F000DEBF0FBECDBF9C838B837E836D834F83F1
:102A00001A82EB81FC81828D8983EB81FC81848D2C
:102A1000882399F4EB81FC8180819181009709F0F2
:102A200089C0EB81FC81848195810E94C8278A83BB
:102A3000EB81FC81158214827DC08F81882399F5FA
:102A4000EB81FC8162817381EB81FC81848D482F55
:102A500050E02D813E81CB01B9010E94322DEB81E6
:102A6000FC8122813381EB81FC81848D882F90E071
:102A7000820F931FEB81FC8193838283EB81FC8126
:102A800022813381EB81FC8184819581281739076C
:102A900008F450C0EB81FC8180819181EB81FC8145
:102AA0009383828347C0EB81FC8166817781EB81D0
:102AB000FC81848D482F50E02D813E81CB01B901EE
:102AC0000E94322DEB81FC8126813781EB81FC81D4
:102AD000848D882F90E0909581959F4F820F931F52
:102AE000EB81FC8197838683EB81FC812681378192
:102AF000EB81FC81808191812817390790F4EB816B
:102B0000FC8124813581EB81FC81848D882F90E0CC
:102B1000909581959F4F820F931FEB81FC81978346
:102B200086838F81823031F48981882319F08981ED
:102B30008150898389818F5FEB81FC81828F8A81BB
:102B400027960FB6F894DEBF0FBECDBFCF91DF91B1
:102B50000895DF93CF9300D000D0CDB7DEB79A832E
:102B600089837C836B83E981FA81848D882389F151
:102B7000E981FA8126813781E981FA81848D882F64
:102B800090E0820F931FE981FA8197838683E98120
:102B9000FA8126813781E981FA818481958128171C
:102BA000390740F0E981FA8180819181E981FA81D8
:102BB00097838683E981FA8146815781E981FA8189
:102BC000848D282F30E08B819C81BA01A9010E945D
:102BD000322D0F900F900F900F90CF91DF910895AD
:102BE000DF93CF9300D000D0CDB7DEB79C838B832B
:102BF0000FB6F8940F92EB81FC81868D8A8311C009
:102C0000EB81FC818189882379F08B819C814196BD
:102C10000E94E724882311F00E9453268A81815064
:102C20008A838A81181664F3EB81FC818FEF868F8B
:102C30000F900FBE0FB6F8940F92EB81FC81858D3B
:102C4000898311C0EB81FC818085882379F08B8199
:102C50009C8108960E94E724882311F00E94532645
:102C60008981815089838981181664F3EB81FC8105
:102C70008FEF858F0F900FBE0F900F900F900F90DA
:102C8000CF91DF910895DF93CF9300D00F92CDB70E
:102C9000DEB79B838A830FB6F8940F92EA81FB819B
:102CA000828D882319F481E0898301C019820F90F5
:102CB0000FBE89810F900F900F90CF91DF910895F3
:102CC000DF93CF9300D000D00F92CDB7DEB79D83B6
:102CD0008C838C819D819A838983E981FA81828D9D
:102CE000882319F481E08B8301C01B828B810F90B4
:102CF0000F900F900F900F90CF91DF910895DF9379
:102D0000CF9300D00F92CDB7DEB79B838A830FB6E7
:102D1000F8940F92EA81FB81928DEA81FB81838D89
:102D2000981719F481E0898301C019820F900FBEB2
:102D300089810F900F900F90CF91DF910895DF93CD
:102D4000CF9300D000D00F92CDB7DEB79D838C8398
:102D50008C819D819A838983E981FA81928DE981B1
:102D6000FA81838D981719F481E08B8301C01B824F
:102D70008B810F900F900F900F900F90CF91DF915C
:102D800008950F93DF93CF93CDB7DEB728970FB693
:102D9000F894DEBF0FBECDBF9D838C837F836E838F
:102DA00048878885813019F481E0898301C01982C0
:102DB0008E819F81009721F481E090E09F838E8334
:102DC0008C819D8101969D838C838C819D810F9642
:102DD0000E94C9089B838A838A819B81009789F01E
:102DE0006A817B818A819B819C01215F3F4F4C815D
:102DF0005D81EE81FF81CB01B9019F0109810E94B4
:102E0000191E8A819B8128960FB6F894DEBF0FBEEB
:102E1000CDBFCF91DF910F910895DF93CF9300D075
:102E200000D0CDB7DEB79C838B838B819C819A8346
:102E30008983E981FA818685882F90E0827090707D
:102E4000009729F489819A810E941F0908C089810D
:102E50009A8160E070E04FE050E00E943B2D0F90BF
:102E60000F900F900F90CF91DF9108950F93DF9304
:102E7000CF9300D000D00F92CDB7DEB79D838C8367
:102E80008C819D819B838A8319820FB6F8940F925F
:102E9000EA81FB81808591850097F1F4EA81FB81CD
:102EA000828593850097C1F4EA81FB81248535856D
:102EB000EA81FB8144815581EA81FB81A681B7814A
:102EC000EA81FB81E6858A819B81B9019D010E2FF4
:102ED0000E94191E81E089830F900FBE89810F9097
:102EE0000F900F900F900F90CF91DF910F91089559
:102EF000DF93CF93CDB7DEB727970FB6F894DEBF39
:102F00000FBECDBF9D838C837F836E838C819D811B
:102F10009B838A838E819F81009721F481E090E0DA
:102F20009F838E83EA81FB81248135818E819F81FD
:102F30002817390748F0EA81FB818E819F819783AA
:102F4000868381E0898301C01982898127960FB623
:102F5000F894DEBF0FBECDBFCF91DF910895DF9310
:102F6000CF9300D000D000D0CDB7DEB79E838D8345
:102F70008D819E819C838B83EB81FC8124813581B3
:102F8000EB81FC8180819181820F931F9A838983D9
:102F9000EB81FC812281338189819A81821B930B91
:102FA0009A83898389819A8101979A838983EB81A6
:102FB000FC812481358189819A818217930750F0A1
:102FC000EB81FC812481358189819A81821B930B5D
:102FD0009A83898389819A8126960FB6F894DEBFF9
:102FE0000FBECDBFCF91DF910895DF93CF9300D077
:102FF00000D000D0CDB7DEB79E838D838D819E81BA
:103000009C838B838B819C810E94DF1D9A838983A3
:1030100089819A8126960FB6F894DEBF0FBECDBF88
:10302000CF91DF910895EF92FF920F931F93DF935B
:10303000CF93CDB7DEB763970FB6F894DEBF0FBE60
:10304000CDBF9D878C877F876E87598B488B3B8B45
:103050002A8B8C859D8598878F831C821B8288890B
:1030600099899A838983EF81F8858685882F90E0F6
:1030700081709070882329F089819A8102969A83C1
:1030800089838A899B89009709F440C0CE010996FB
:103090000E94AF250FB6F8940F928F8198850E94F9
:1030A000AF179C838B832B813C8189819A81281760
:1030B000390750F580E090E00E947C2C0E94182790
:1030C000EF81F885938782870F900FBEEA89FB898D
:1030D00060E070E080E090E020E030E040E050E030
:1030E00000E010E07F010E948529EF81F8851386BA
:1030F0001286CE0109969E012E5E3F4FB9010E94B5
:10310000E625882339F202C00F900FBE8B819C8187
:10311000009731F48F8198850E94AF179C838B8331
:103120008F8198852E853F8548895989EB81FC815F
:10313000A981BA81B9019F018D010E9458199E830E
:103140008D838D819E81009739F18F8198850E94B2
:10315000DF1D9C01EF81F88586819781281739074B
:10316000D8F00E944722EF81F885808591850097ED
:1031700089F0EF81F8858085918540E050E060E03E
:1031800070E020E000E010E00E94212AEF81F88545
:10319000118610860E9453228D819E8163960FB600
:1031A000F894DEBF0FBECDBFCF91DF911F910F917D
:1031B000FF90EF900895EF92FF920F931F93DF938C
:1031C000CF93CDB7DEB761970FB6F894DEBF0FBED1
:1031D000CDBF9B878A877D876C875F874E87398BBA
:1031E000288B8A859B85998788878E859F859B8379
:1031F0008A83E885F9858685882F90E081709070B4
:10320000882329F08A819B8102969B838A83888503
:1032100099850E94AF179D838C83888599852C851D
:103220003D854E855F85EC81FD81AA81BB81B90119
:103230009F018D010E9458199F838E838E819F81EB
:10324000009739F1888599850E94DF1D9C01E885EA
:10325000F9858681978128173907D8F01982E88582
:10326000F985808591850097A1F0E885F9858085AD
:103270009185E889F98940E050E060E070E020E065
:1032800000E010E07F010E94FE2AE885F9851186A2
:1032900010868E819F8161960FB6F894DEBF0FBEB7
:1032A000CDBFCF91DF911F910F91FF90EF900895C7
:1032B0000F931F93DF93CF93CDB7DEB761970FB610
:1032C000F894DEBF0FBECDBF9D838C837F836E835A
:1032D000598748873B872A871D870C878A859B8566
:1032E000009711F41B8238C0EC81FD818685882F00
:1032F00090E0817090700097D1F481E08B832885F5
:103300003985398B288B8A859B859F878E872E856B
:103310003F85888999898217930720F428893989FC
:103320003F872E878E859F859987888715C02A8538
:103330003B858C859D852817390768F081E08B8354
:103340009E01285F3F4F8C819D81B90142E050E092
:103350000E94A51C01C01B828B81882361F02E81F5
:103360003F81488559858C819D81B9010E94A51CAA
:103370009A83898302C01A82198289819A8161960F
:103380000FB6F894DEBF0FBECDBFCF91DF911F9176
:103390000F910895EF92FF920F931F93DF93CF93B6
:1033A000CDB7DEB760970FB6F894DEBF0FBECDBFC6
:1033B0009A8789877C876B875E874D87388B2F87B5
:1033C00089859A8598878F831E821D82EF81F88573
:1033D0008685882F90E081709070882329F082E0A4
:1033E00090E09A83898302C01A8219828F85988916
:1033F000009709F43DC00FB6F8940F928F8198851D
:103400000E94DF1D9C838B832B813C8189819A8163
:103410008217930750F080E090E00E947C2C0E947D
:103420001827EF81F885918780870F900FBE2B8139
:103430003C8189819A818217930700F1EF85F88991
:1034400060E070E080E090E020E030E040E050E0BC
:1034500000E010E07F010E948529EF81F885118648
:1034600010868F8198850E94DF1D9C838B8306C008
:103470008F8198850E94DF1D9C838B832B813C81EB
:1034800089819A818217930780F58F8198852B8592
:103490003C854D855E85EB81FC81A981BA81B901AE
:1034A0009F018D010E944E1B9E838D838D819E8185
:1034B0000097D9F00E944722EF81F8858285938595
:1034C000009789F0EF81F8858285938540E050E090
:1034D00060E070E020E000E010E00E94212AEF812F
:1034E000F885138612860E9453228D819E816096F4
:1034F0000FB6F894DEBF0FBECDBFCF91DF911F9105
:103500000F91FF90EF900895DF93CF93CDB7DEB783
:103510002C970FB6F894DEBF0FBECDBF9C878B876C
:103520008B859C8598878F83EF81F8858685882F8A
:1035300090E081709070882361F18F8198850E945E
:10354000DF1D9C838B838B819C8183309105F0F000
:10355000EF81F885808191819A8389839E01275F1D
:103560003F4F8F819885EB81FC81B90142E050E0AB
:103570009F010E94321D89859A859E838D83EF81EC
:10358000F88589819A819183808305C01E821D827E
:1035900002C01E821D828D819E812C960FB6F894EA
:1035A000DEBF0FBECDBFCF91DF910895EF92FF92A6
:1035B0000F931F93DF93CF93CDB7DEB761970FB60D
:1035C000F894DEBF0FBECDBF9B878A877D876C874F
:1035D0005F874E87398B288B8A859B85998788875B
:1035E0001F821E82E885F9858685882F90E081708C
:1035F0009070882329F082E090E09B838A8302C048
:103600001B821A82888599850E94DF1D9D838C8389
:103610002C813D818A819B818217930780F5888563
:1036200099852C853D854E855F85EC81FD81AA813C
:10363000BB81B9019F018D010E944E1B9F838E8328
:103640008E819F810097D9F01982E885F98582855E
:1036500093850097A1F0E885F98582859385E889AF
:10366000F98940E050E060E070E020E000E010E028
:103670007F010E94FE2AE885F985138612868E81D5
:103680009F8161960FB6F894DEBF0FBECDBFCF917C
:10369000DF911F910F91FF90EF9008950F931F936B
:1036A000DF93CF93CDB7DEB762970FB6F894DEBF46
:1036B0000FBECDBF9A8789877C876B875E874D87D2
:1036C000388B2F871A8B098B89899A89009791F1FA
:1036D000E985FA85808191819E838D83AE01495F62
:1036E0005F4F89859A8529893A89EF85F889BA01DA
:1036F000A9019F010E94321D8F8198859A83898339
:103700002F85388989899A89A901481B590BCA01D3
:10371000988B8F8729813A818D859E8582179307A3
:1037200068F4E985FA858D819E81918380831A8270
:10373000198204C08D859E859A8389834B855C851B
:1037400089859A8529813A81EF85F889BA01A9018D
:103750009F010E94321D9C838B838B819C8162968A
:103760000FB6F894DEBF0FBECDBFCF91DF911F9192
:103770000F910895DF93CF93CDB7DEB727970FB69C
:10378000F894DEBF0FBECDBF9F838E838E819F8155
:103790009D838C83EC81FD81808191819A838983D3
:1037A000EC81FD812281338189819A812817390733
:1037B00019F481E08B8301C01B828B8127960FB6A1
:1037C000F894DEBF0FBECDBFCF91DF910895DF9398
:1037D000CF93CDB7DEB727970FB6F894DEBF0FBEF5
:1037E000CDBF9F838E838E819F819A838983E98158
:1037F000FA818685882F90E081709070882329F067
:1038000082E090E09C838B8302C01C821B828E81AD
:103810009F810E94AF179C018B819C818217930727
:1038200018F081E08D8301C01D828D8127960FB62F
:10383000F894DEBF0FBECDBFCF91DF910895EF9218
:10384000FF920F931F93DF93CF93CDB7DEB72897E7
:103850000FB6F894DEBF0FBECDBF9E838D837887F1
:103860006F838D819E819C838B831982EB81FC8188
:10387000808591850097B9F0EB81FC8180859185E9
:10388000EF81F88540E050E060E070E020E000E08B
:1038900010E07F010E94FE2AEB81FC8111861086D8
:1038A00081E08A8301C01A828A8128960FB6F89433
:1038B000DEBF0FBECDBFCF91DF911F910F91FF9063
:1038C000EF900895EF92FF920F931F93DF93CF93A2
:1038D000CDB7DEB728970FB6F894DEBF0FBECDBFC9
:1038E0009E838D8378876F838D819E819C838B835C
:1038F0001982EB81FC81828593850097B9F0EB8179
:10390000FC8182859385EF81F88540E050E060E09E
:1039100070E020E000E010E07F010E94FE2AEB81D1
:10392000FC811386128681E08A8301C01A828A8113
:1039300028960FB6F894DEBF0FBECDBFCF91DF91B2
:103940001F910F91FF90EF900895DF93CF93CDB724
:10395000DEB72E970FB6F894DEBF0FBECDBF9E83A5
:103960008D8378876F835A874987ED81FE818281B5
:1039700093819C838B83ED81FE81248135818B81B2
:103980009C81A901481B590BCA0129853A853E87AC
:103990002D879C878B874B855C858D859E858417BD
:1039A000950720F42D853E853C872B874B855C85CC
:1039B0005A834983ED81FE81248535858B819C81E5
:1039C000820F931F2F81388549815A81B9010E9446
:1039D000322D29853A8589819A8182179307B0F41F
:1039E000ED81FE81648575852F81388589819A8175
:1039F000A901480F591F29853A8589819A81281B79
:103A0000390BCB01BA01A9010E94322D2B813C81D7
:103A100089859A85820F931F9C838B83ED81FE811C
:103A2000248135818B819C818217930750F0ED8131
:103A3000FE81248135818B819C81821B930B9C8329
:103A40008B83ED81FE818B819C8193838283898529
:103A50009A852E960FB6F894DEBF0FBECDBFCF91DC
:103A6000DF910895DF93CF93CDB7DEB766970FB69A
:103A7000F894DEBF0FBECDBF98878F837A876987A2
:103A80005C874B873E872D872D853E853A8B298B1A
:103A90004B855C85588B4F878F85988929893A8912
:103AA0002817390720F449895A89588B4F878F8501
:103AB00098899E838D838D819E81009709F474C0BF
:103AC000EF81F885808191819A838983EF81F885E0
:103AD0002481358189819A81A901481B590BCA012A
:103AE0002D813E813E8B2D8B9C8B8B8B4B895C89F2
:103AF0008D899E898417950720F42D893E893C8BFA
:103B00002B8B4B895C895C834B83EF81F885248503
:103B1000358589819A81A901480F591F89859A8520
:103B20002B813C81BA01A9010E94322D2D813E8159
:103B30008B819C8182179307B0F429853A858B810C
:103B40009C81B901680F791FEF81F88544855585FF
:103B50002D813E818B819C81281B390BCB01BA01C1
:103B6000A9010E94322D29813A818D819E81820F87
:103B7000931F9A838983EF81F88524813581898118
:103B80009A818217930750F0EF81F885248135815F
:103B900089819A81821B930B9A838983EF81F885AF
:103BA00089819A81918380838D819E8166960FB6EB
:103BB000F894DEBF0FBECDBFCF91DF910895DF93A4
:103BC000CF9300D000D0CDB7DEB79C838B83EB8141
:103BD000FC8124813581EB81FC8182819381820F7C
:103BE000931F9A838983EB81FC81208131818981B4
:103BF0009A81821B930B9A838983EB81FC812481B8
:103C0000358189819A818217930750F0EB81FC817D
:103C10002481358189819A81821B930B9A838983C0
:103C200089819A810F900F900F900F90CF91DF9123
:103C300008950F93DF93CF93CDB7DEB729970FB6D3
:103C4000F894DEBF0FBECDBF9A8389837C836B83DC
:103C50005E834D8338872F83098789819A8160E04D
:103C600070E04FE050E00E943B2DE981FA818B81AA
:103C70009C8195878487E981FA818D819E819583D6
:103C80008483E981FA818F81988597838683E9818E
:103C9000FA818985868729960FB6F894DEBF0FBE14
:103CA000CDBFCF91DF910F9108958F929F92AF92E8
:103CB000BF92CF92DF92EF92FF920F931F93DF9309
:103CC000CF93CDB7DEB760970FB6F894DEBF0FBEC7
:103CD000CDBF9F838E83798768875B874A873D87BF
:103CE0002C870E87F88AEF868A859B850E94C908F3
:103CF0009A83898389819A810097B1F084E390E067
:103D00000E94C9089D838C838C819D81009739F026
:103D1000EC81FD8189819A81908F878B07C0898191
:103D20009A810E941F0902C01D821C828C819D8184
:103D30000097E9F08A859B859C0140E050E08E81E8
:103D40009F8168857985EC85FD85AF85B889AC80D4
:103D5000BD808F01EE846D01882499240E94CD1EC0
:103D60008C819D810E94901F81E08B8302C08FEF28
:103D70008B838B8160960FB6F894DEBF0FBECDBFEC
:103D8000CF91DF911F910F91FF90EF90DF90CF9037
:103D9000BF90AF909F908F9008958F929F92AF9217
:103DA000BF92CF92DF92EF920F931F93DF93CF9347
:103DB000CDB7DEB764970FB6F894DEBF0FBECDBFA8
:103DC0009D838C837F836E83288739874A875B87AF
:103DD0001D870C87EE86D88ACF86BA8AA98A9C8AE4
:103DE0008B8AE989FA892789308D88859985019799
:103DF000820F931F9B838A838E819F81009751F14D
:103E0000198221C08981482F50E08981282F30E014
:103E10008E819F81FC01E20FF31F208189899A899D
:103E2000840F951FFC01799620838981282F30E02B
:103E30008E819F81FC01E20FF31F8081882331F086
:103E400089818F5F898389818431E0F2E989FA89E8
:103E500014A603C0E989FA89118E8E85873010F087
:103E600086E08E87E989FA898E85868BE989FA89C9
:103E70008E8585A7E989FA8916A689899A89029685
:103E80000E94F80A89899A890C960E94F80AE989A1
:103E9000FA8989899A89918780878E85282F30E0D1
:103EA00087E090E0821B930BE989FA8995878487E4
:103EB000E989FA8989899A89938B828BE989FA89B8
:103EC00017A610AA11AA12AAE989FA8913AA8A8147
:103ED0009B812C813D814C855D85B9010E94210C1F
:103EE000E989FA89918380838F859889009731F0D9
:103EF000EF85F88989899A899183808364960FB6C2
:103F0000F894DEBF0FBECDBFCF91DF911F910F910F
:103F1000EF90DF90CF90BF90AF909F908F900895DB
:103F2000DF93CF9300D0CDB7DEB79A8389830FB6E6
:103F3000F8940F928091C3068F5F8093C30680919F
:103F4000C0069091C106009769F489819A81909387
:103F5000C1068093C0068091C3068130B9F40E94E7
:103F6000672614C08091C706882381F4E091C006BB
:103F7000F091C1069689E981FA818689891730F026
:103F800089819A819093C1068093C0068091CB0667
:103F90008F5F8093CB06E981FA8196898091C6066E
:103FA000891728F4E981FA8186898093C606E98118
:103FB000FA818689282F30E0C901880F991F880F60
:103FC000991F880F991F820F931FAC014F52594FB1
:103FD00089819A819C012E5F3F4FCA01B9010E94DD
:103FE000080B0F900FBE8091C706882361F0E09107
:103FF000C006F091C1069689E981FA8186899817F1
:1040000010F40E94E00D0F900F90CF91DF91089572
:10401000DF93CF9300D000D000D0CDB7DEB79C8324
:104020008B830FB6F8940F928B819C81009739F4A3
:104030008091C0069091C1069E838D8304C08B81C0
:104040009C819E838D838D819E819A8389838981C2
:104050009A8102960E94B80BE981FA818489958938
:10406000009729F089819A810C960E94B80B809163
:10407000CB068F5F8093CB062091C0063091C1069E
:1040800089819A818217930781F489819A819C01A1
:104090002E5F3F4F8FE297E0B9010E94080B80919D
:1040A000C2068F5F8093C2060BC08091C306815009
:1040B0008093C30689819A810E94D7260E94ED26AB
:1040C0000F900FBE8091C706882359F02091C0063B
:1040D0003091C10689819A818217930711F40E9459
:1040E000E00D26960FB6F894DEBF0FBECDBFCF9180
:1040F000DF910895DF93CF9300D00F92CDB7DEB755
:104100009B838A8319828A819B81009751F00E9448
:1041100047228A819B8160E00E94B62C0E94532234
:1041200089838981882311F40E94E00D0F900F90FC
:104130000F90CF91DF910895DF93CF9300D000D0FF
:1041400000D0CDB7DEB79C838B830FB6F8940F9267
:104150008B819C81009739F48091C0069091C106B3
:104160009E838D8304C08B819C819E838D838D81F2
:104170009E819A83898389819A8102960E94B80BD5
:10418000E981FA8184899589009729F089819A814A
:104190000C960E94B80B89819A819C012E5F3F4F3B
:1041A00088E397E0B9010E94080BE981FA8183A9AD
:1041B000813019F4E981FA8113AA0F900FBE809122
:1041C000C706882339F00FB6F8940F920E94ED26A7
:1041D0000F900FBE2091C0063091C10689819A814F
:1041E00082179307A1F48091C706882319F00E94D3
:1041F000E00D0DC0909138078091C306981729F4FF
:104200001092C1061092C00602C00E942824269671
:104210000FB6F894DEBF0FBECDBFCF91DF910895EA
:10422000DF93CF9300D000D00F92CDB7DEB79D8340
:104230008C831B828C819D819A838983E981FA8199
:104240008285938527E08833920781F4E981FA819A
:104250008489958927E08632920741F0E981FA81C5
:1042600084899589009711F481E08B838B810F906D
:104270000F900F900F900F90CF91DF910895DF93E3
:10428000CF9300D000D0CDB7DEB79C838B838B81DA
:104290009C819A8389832091C0063091C1068981CF
:1042A0009A818217930709F447C089819A81009700
:1042B00009F442C00FB6F8940F9289819A810E9446
:1042C00010218823B9F189819A8102960E94B80B46
:1042D000E981FA8196898091C606891728F4E981D7
:1042E000FA8186898093C606E981FA818689282F1A
:1042F00030E0C901880F991F880F991F880F991FF7
:10430000820F931FAC014F52594F89819A819C01B2
:104310002E5F3F4FCA01B9010E94080BE981FA8163
:104320009689E091C006F091C1068689981710F031
:104330000E94E00D0F900FBE0F900F900F900F9006
:10434000CF91DF910895DF93CF9300D000D000D0BC
:10435000CDB7DEB79E838D831C828D819E819B832A
:104360008A8319828A819B810E941021882309F403
:1043700046C08091D0068823C1F5EA81FB819689E9
:10438000E091C006F091C1068689981710F081E08F
:104390008C838A819B8102960E94B80BEA81FB8103
:1043A00096898091C606891728F4EA81FB8186895F
:1043B0008093C606EA81FB818689282F30E0C901F7
:1043C000880F991F880F991F880F991F820F931FBD
:1043D000AC014F52594F8A819B819C012E5F3F4F08
:1043E000CA01B9010E94080B0AC08A819B819C0105
:1043F000245F3F4F86E297E0B9010E94080B8C8151
:1044000026960FB6F894DEBF0FBECDBFCF91DF91D9
:104410000895EF92FF920F93DF93CF930F92CDB752
:10442000DEB78DE596E223ED30E0EEECF6E0B90183
:1044300046E950E020E030E000E07F010E94551E98
:1044400089838981813081F4F8948FEF9FEF909375
:10445000CD068093CC0681E08093C7061092C506F6
:104460001092C4060E94A40D0F90CF91DF910F917E
:10447000FF90EF900895DF93CF93CDB7DEB7F89418
:104480001092C7060E94D90DCF91DF910895DF9356
:10449000CF93CDB7DEB78091D0068F5F8093D006E3
:1044A000CF91DF910895DF93CF9300D000D0CDB7A7
:1044B000DEB71C821B821A820FB6F8940F9280918D
:1044C000D00681508093D0068091D006882309F0D1
:1044D00073C08091C306882309F46EC045C0E09183
:1044E0002B07F0912C07868197819C838B838B818E
:1044F0009C810C960E94B80B8B819C8102960E9435
:10450000B80BEB81FC8196898091C606891728F447
:10451000EB81FC8186898093C606EB81FC818689CC
:10452000282F30E0C901880F991F880F991F880F25
:10453000991F820F931FAC014F52594F8B819C8161
:104540009C012E5F3F4FCA01B9010E94080BEB810D
:10455000FC819689E091C006F091C1068689981782
:1045600018F081E08093C90680912607882309F01E
:10457000B6CF8B819C81009711F00E94ED2680912F
:10458000C80689838981882379F00E944323882380
:1045900019F081E08093C9068981815089838981DE
:1045A000882399F71092C8068091C906882321F0C4
:1045B00081E08A830E94E00D0F900FBE8A810F90E8
:1045C0000F900F900F90CF91DF910895DF93CF93CD
:1045D00000D0CDB7DEB70FB6F8940F928091C40625
:1045E0009091C5069A8389830F900FBE89819A8125
:1045F0000F900F90CF91DF910895DF93CF9300D06C
:104600000F92CDB7DEB719828091C4069091C5068E
:104610009B838A838A819B810F900F900F90CF910B
:10462000DF910895DF93CF93CDB7DEB78091C306B6
:10463000CF91DF910895DF93CF9300D000D000D0C9
:10464000CDB7DEB79C838B838B819C81009739F437
:104650008091C0069091C1069E838D8304C08B819A
:104660009C819E838D838D819E819A83898389819C
:104670009A81499626960FB6F894DEBF0FBECDBF3D
:10468000CF91DF910895DF93CF93CDB7DEB7299710
:104690000FB6F894DEBF0FBECDBF1D828091D0064D
:1046A000882309F0C0C08091C4069091C506019688
:1046B0009C838B838B819C819093C5068093C406D9
:1046C0008B819C810097D9F48091220790912307D8
:1046D0009A838983809124079091250790932307DB
:1046E0008093220789819A819093250780932407DC
:1046F0008091CA068F5F8093CA060E94ED262091A2
:10470000CC063091CD068B819C818217930708F4EB
:1047100071C0E0912207F09123078081882339F44A
:104720008FEF9FEF9093CD068093CC0663C0E0910E
:104730002207F09123070580F681E02D868197817D
:1047400099878887E885F985828193819F838E8305
:104750002B813C818E819F812817390738F48E8107
:104760009F819093CD068093CC0644C0888599851F
:1047700002960E94B80BE885F9858489958900978F
:1047800029F0888599850C960E94B80BE885F985F3
:1047900096898091C606891728F4E885F985868967
:1047A0008093C606E885F9858689282F30E0C901FF
:1047B000880F991F880F991F880F991F820F931FC9
:1047C000AC014F52594F888599859C012E5F3F4F10
:1047D000CA01B9010E94080BE885F9859689E09124
:1047E000C006F091C1068689981708F492CF81E03F
:1047F0008D838FCFE091C006F091C1068689282F66
:1048000030E0C901880F991F880F991F880F991FE1
:10481000820F931FFC01EF52F94F8081823040F0EC
:1048200081E08D8305C08091C8068F5F8093C806A4
:104830008091C906882311F081E08D838D812996AE
:104840000FB6F894DEBF0FBECDBFCF91DF910895B4
:10485000DF93CF9300D00F92CDB7DEB78091D00613
:10486000882321F081E08093C90659C01092C906BF
:104870008091C6068B8303C08B8181508B838B8193
:10488000282F30E0C901880F991F880F991F880FC2
:10489000991F820F931FFC01EF52F94F80818823EB
:1048A00059F38B81282F30E0C901880F991F880F99
:1048B000991F880F991F820F931F8F52994F9A83C8
:1048C0008983E981FA810180F281E02D82819381DF
:1048D000E981FA8192838183E981FA8121813281A0
:1048E00089819A8103962817390759F4E981FA8159
:1048F0000180F281E02D82819381E981FA819283A6
:104900008183E981FA810180F281E02D868197819E
:104910009093C1068093C0068B818093C6060F904A
:104920000F900F90CF91DF910895DF93CF9300D038
:1049300000D0CDB7DEB79A8389837C836B83809167
:10494000C0069091C1069C01245F3F4F89819A81E6
:10495000B9010E944C0B8B819C8161E00E94B62CB6
:104960000F900F900F900F90CF91DF910895DF93EC
:10497000CF9300D000D000D0CDB7DEB79A83898323
:104980007C836B835E834D83E091C006F091C1060A
:104990008B819C819068958784878091C0069091D7
:1049A000C1069C01245F3F4F89819A81B9010E9411
:1049B000080B8D819E8161E00E94B62C26960FB671
:1049C000F894DEBF0FBECDBFCF91DF910895DF9386
:1049D000CF9300D000D00F92CDB7DEB79D838C83EC
:1049E000EC81FD810580F681E02D868197819B8396
:1049F0008A838A819B810C960E94B80B8091D00695
:104A0000882361F58A819B8102960E94B80BEA8116
:104A1000FB8196898091C606891728F4EA81FB817B
:104A200086898093C606EA81FB818689282F30E03B
:104A3000C901880F991F880F991F880F991F820F2E
:104A4000931FAC014F52594F8A819B819C012E5F6D
:104A50003F4FCA01B9010E94080B0AC08A819B819D
:104A60009C01245F3F4F86E297E0B9010E94080B4A
:104A7000EA81FB819689E091C006F091C1068689A2
:104A8000891730F481E0898381E08093C90601C0F1
:104A9000198289810F900F900F900F900F90CF91F6
:104AA000DF910895DF93CF9300D000D000D0CDB731
:104AB000DEB79C838B837E836D838D819E8190681E
:104AC000EB81FC8191838083EB81FC8186819781DE
:104AD0009A8389838B819C810E94B80B89819A81FA
:104AE00002960E94B80BE981FA8196898091C606E8
:104AF000891728F4E981FA8186898093C606E981BD
:104B0000FA818689282F30E0C901880F991F880F04
:104B1000991F880F991F820F931FAC014F52594F55
:104B200089819A819C012E5F3F4FCA01B9010E9481
:104B3000080BE981FA819689E091C006F091C106DF
:104B40008689891718F481E08093C90626960FB6E6
:104B5000F894DEBF0FBECDBFCF91DF910895DF93F4
:104B6000CF9300D0CDB7DEB79A8389830FB6F89480
:104B70000F928091CA06E981FA8180838091C406F0
:104B80009091C506E981FA81928381830F900FBECF
:104B90000F900F90CF91DF910895DF93CF9300D0C6
:104BA000CDB7DEB79A8389838091CA06E981FA81FD
:104BB00080838091C4069091C506E981FA81928331
:104BC00081830F900F90CF91DF910895DF93CF9362
:104BD000CDB7DEB729970FB6F894DEBF0FBECDBFB5
:104BE0009F838E83798768870FB6F8940F928091A0
:104BF000C4069091C5069C838B83EE81FF81218141
:104C000032818B819C81821B930B9A838983E885F7
:104C1000F985808191812FEF8F3F920711F41D82DA
:104C200036C0EE81FF8190818091CA06981761F0AD
:104C3000EE81FF81218132818B819C8182179307D4
:104C400018F081E08D8323C0E885F98520813181CA
:104C500089819A8182179307A0F4E885F9852081DC
:104C6000318189819A81A901481B590BCA01E885C4
:104C7000F985918380838E819F810E94CD251D823D
:104C800006C0E885F9851182108281E08D830F903E
:104C90000FBE8D8129960FB6F894DEBF0FBECDBF33
:104CA000CF91DF910895DF93CF93CDB7DEB781E049
:104CB0008093C906CF91DF910895DF93CF9300D001
:104CC000CDB7DEB79A8389830E94A826FDCFDF93F4
:104CD000CF930F92CDB7DEB7198213C08981282FE9
:104CE00030E0C901880F991F880F991F880F991FFD
:104CF000820F931F8F52994F0E94CE0A89818F5F36
:104D000089838981873050F380E197E00E94CE0A41
:104D100089E197E00E94CE0A86E297E00E94CE0ADF
:104D20008FE297E00E94CE0A88E397E00E94CE0AC5
:104D300080E197E0909323078093220789E197E031
:104D400090932507809324070F90CF91DF910895CA
:104D5000DF93CF9300D0CDB7DEB720C00FB6F89465
:104D60000F92E0913407F0913507868197819A83FD
:104D7000898389819A8102960E94B80B8091C3062B
:104D800081508093C3068091C20681508093C206F1
:104D90000F900FBE89819A810E94D7268091C2060A
:104DA0008823E1F60F900F90CF91DF910895DF9364
:104DB000CF9300D0CDB7DEB79A838983E981FA819A
:104DC0008789908D0E941F0989819A810E941F09FD
:104DD0000F900F90CF91DF910895DF93CF9300D084
:104DE000CDB7DEB7E0912207F091230780818823B9
:104DF00039F48FEF9FEF9093CD068093CC0613C0CC
:104E0000E0912207F09123070580F681E02D86814D
:104E100097819A838983E981FA8182819381909332
:104E2000CD068093CC060F900F90CF91DF9108951F
:104E3000DF93CF9300D0CDB7DEB78091C0069091BD
:104E4000C1069A83898389819A810F900F90CF91AF
:104E5000DF910895DF93CF9300D000D00F92CDB7AC
:104E6000DEB79D838C838C819D819B838A8319828D
:104E70008C819D81009709F482C0EA81FB8196892B
:104E8000E091C006F091C1068689981708F06BC0C2
:104E9000EA81FB818485958599237CF0E091C006A9
:104EA000F091C1068689282F30E087E090E0821BD0
:104EB000930BEA81FB8195878487EA81FB81428598
:104EC0005385EA81FB818689282F30E0C901880F4C
:104ED000991F880F991F880F991F820F931F8F5258
:104EE000994F48175907A1F58A819B8102960E9424
:104EF000B80BE091C006F091C1068689EA81FB817A
:104F0000868BEA81FB8196898091C606891728F4F1
:104F1000EA81FB8186898093C606EA81FB818689C6
:104F2000282F30E0C901880F991F880F991F880F1B
:104F3000991F820F931FAC014F52594F8A819B8159
:104F40009C012E5F3F4FCA01B9010E94080B08C0A7
:104F5000E091C006F091C1068689EA81FB81868BCB
:104F600081E089830CC0EA81FB8195A5E091C006B0
:104F7000F091C1068689981710F481E089838981B0
:104F80000F900F900F900F900F90CF91DF91089599
:104F9000DF93CF9300D000D00F92CDB7DEB79D83C3
:104FA0008C838C819D819B838A8319828C819D81D6
:104FB000009709F456C0EA81FB8186A58150EA81F9
:104FC000FB8186A7EA81FB819689EA81FB8185A521
:104FD000981709F446C0EA81FB8186A5882309F069
:104FE00040C08A819B8102960E94B80BEA81FB81B6
:104FF00085A5EA81FB81868BEA81FB818689282F42
:1050000030E087E090E0821B930BEA81FB8195877B
:105010008487EA81FB8196898091C606891728F4E6
:10502000EA81FB8186898093C606EA81FB818689B5
:10503000282F30E0C901880F991F880F991F880F0A
:10504000991F820F931FAC014F52594F8A819B8148
:105050009C012E5F3F4FCA01B9010E94080B81E0FD
:10506000898389810F900F900F900F900F90CF91AF
:10507000DF910895DF93CF93CDB7DEB728970FB6B2
:10508000F894DEBF0FBECDBF9F838E8368878E816D
:105090009F819D838C8381E089838E819F8100978E
:1050A00009F474C0EC81FD8195A58885981718F4E2
:1050B00088858A8304C0EC81FD8185A58A83EC8183
:1050C000FD8196898A81981709F460C0EC81FD8181
:1050D00096A58981981709F059C0EC81FD818689D0
:1050E0008B83EC81FD818A81868BEC81FD818485B7
:1050F000958599235CF08A81282F30E087E090E045
:10510000821B930BEC81FD8195878487EC81FD8167
:10511000428553858B81282F30E0C901880F991F64
:10512000880F991F880F991F820F931F8F52994FD5
:105130004817590759F58C819D8102960E94B80B3A
:10514000EC81FD8196898091C606891728F4EC814F
:10515000FD8186898093C606EC81FD818689282F92
:1051600030E0C901880F991F880F991F880F991F78
:10517000820F931FAC014F52594F8C819D819C012E
:105180002E5F3F4FCA01B9010E94080B28960FB647
:10519000F894DEBF0FBECDBFCF91DF910895DF93AE
:1051A000CF9300D0CDB7DEB7E091C006F091C10635
:1051B000848595859A838983A091C006B091C106A4
:1051C000E091C006F091C1068689282F30E087E083
:1051D00090E0821B930B1D969C938E931C97898164
:1051E0009A810F900F90CF91DF910895DF93CF9325
:1051F000CDB7DEB78091C0069091C106009739F017
:10520000E091C006F091C10686A58F5F86A78091C8
:10521000C0069091C106CF91DF910895DF93CF939F
:10522000CDB7DEB727970FB6F894DEBF0FBECDBF60
:105230008D837F836E830FB6F8940F92E091C00642
:10524000F091C10687A590A9A1A9B2A90097A105CF
:10525000B10589F4E091C006F091C10681E083AB0D
:105260008E819F81009739F08E819F8161E00E943D
:10527000B62C0E94E00D0F900FBE0FB6F8940F925F
:10528000E091C006F091C10687A590A9A1A9B2A995
:1052900089839A83AB83BC8389819A81AB81BC81EA
:1052A0000097A105B105D9F08D81882349F0E091DF
:1052B000C006F091C10617A610AA11AA12AA0FC023
:1052C000E091C006F091C10689819A81AB81BC81D1
:1052D0000197A109B10987A790ABA1ABB2ABE0914F
:1052E000C006F091C10613AA0F900FBE89819A8162
:1052F000AB81BC81BC01CD0127960FB6F894DEBF0F
:105300000FBECDBFCF91DF910895EF92FF920F9323
:105310001F93DF93CF93CDB7DEB72D970FB6F894D9
:10532000DEBF0FBECDBF6A837B838C839D832E83BC
:105330003F83488759871B870A87FD86EC860FB60F
:10534000F8940F92E091C006F091C10683A98230D3
:1053500049F1E091C006F091C10627A530A941A905
:1053600052A98A819B81AC81BD8180959095A09541
:10537000B09582239323A423B52387A790ABA1AB39
:10538000B2ABE091C006F091C10681E083AB8C85A1
:105390009D85009739F08C859D8561E00E94B62C33
:1053A0000E94E00D0F900FBE0FB6F8940F928A8501
:1053B0009B85009771F0E091C006F091C10687A52A
:1053C00090A9A1A9B2A9EA85FB8580839183A283D4
:1053D000B383E091C006F091C10683A9823011F039
:1053E00019821AC0E091C006F091C10627A530A924
:1053F00041A952A98E819F81A885B98580959095F4
:10540000A095B09582239323A423B52387A790ABBF
:10541000A1ABB2AB81E08983E091C006F091C106F7
:1054200013AA0F900FBE89812D960FB6F894DEBF98
:105430000FBECDBFCF91DF911F910F91FF90EF90E5
:1054400008950F931F93DF93CF93CDB7DEB72F97B8
:105450000FB6F894DEBF0FBECDBF9E838D834F8302
:10546000588769877A872B871D870C8781E08A8315
:105470008D819E819C838B830FB6F8940F928C85CF
:105480009D85009761F0EB81FC8187A590A9A1A97A
:10549000B2A9EC85FD8580839183A283B383EB81E0
:1054A000FC8183A98983EB81FC8182E083AB8B85BE
:1054B000282F30E03F872E878E859F85823091058B
:1054C00059F12E853F852330310534F48E859F8533
:1054D0008130910561F04AC02E853F85233031052A
:1054E00059F18E859F858430910589F13FC0EB810C
:1054F000FC8127A530A941A952A98F819885A9854A
:10550000BA85822B932BA42BB52BEB81FC8187A72B
:1055100090ABA1ABB2AB2AC0EB81FC8187A590A96F
:10552000A1A9B2A90196A11DB11DEB81FC8187A79C
:1055300090ABA1ABB2AB1AC0EB81FC818F81988597
:10554000A985BA8587A790ABA1ABB2AB0FC0898103
:10555000823059F0EB81FC818F819885A985BA85CD
:1055600087A790ABA1ABB2AB01C01A828981813011
:10557000B9F58B819C8102960E94B80BEB81FC816E
:1055800096898091C606891728F4EB81FC8186896B
:105590008093C606EB81FC818689282F30E0C90103
:1055A000880F991F880F991F880F991F820F931FCB
:1055B000AC014F52594F8B819C819C012E5F3F4F14
:1055C000CA01B9010E94080BEB81FC819689E09128
:1055D000C006F091C1068689891710F40E94E00D7B
:1055E0000F900FBE8A812F960FB6F894DEBF0FBEC4
:1055F000CDBFCF91DF911F910F910895EF92FF9250
:105600000F931F93DF93CF93CDB7DEB762970FB69B
:10561000F894DEBF0FBECDBF9F838E834887598726
:105620006A877B872C871E870D87F88AEF8681E043
:105630008A838E819F819D838C8319828D859E852F
:10564000009761F0EC81FD8187A590A9A1A9B2A97D
:10565000ED85FE8580839183A283B383EC81FD81F8
:1056600083A98B83EC81FD8182E083AB8C85282F1D
:1056700030E03A8B298B89899A898230910559F1DA
:1056800029893A892330310534F489899A8981300E
:10569000910561F04AC029893A892330310559F1D1
:1056A00089899A898430910589F13FC0EC81FD8117
:1056B00027A530A941A952A988859985AA85BB85C6
:1056C000822B932BA42BB52BEC81FD8187A790AB6C
:1056D000A1ABB2AB2AC0EC81FD8187A590A9A1A99D
:1056E000B2A90196A11DB11DEC81FD8187A790ABE8
:1056F000A1ABB2AB1AC0EC81FD8188859985AA85E2
:10570000BB8587A790ABA1ABB2AB0FC08B818230BA
:1057100059F0EC81FD8188859985AA85BB8587A78D
:1057200090ABA1ABB2AB01C01A828B81813009F082
:105730004FC08091D006882361F58C819D810296AF
:105740000E94B80BEC81FD8196898091C60689176D
:1057500028F4EC81FD8186898093C606EC81FD8169
:105760008689282F30E0C901880F991F880F991F5B
:10577000880F991F820F931FAC014F52594F8C8194
:105780009D819C012E5F3F4FCA01B9010E94080B09
:105790000AC08C819D819C01245F3F4F86E297E087
:1057A000B9010E94080BEC81FD819689E091C00649
:1057B000F091C1068689891758F48F8598890097DA
:1057C00021F0EF85F88981E0808381E08093C9062C
:1057D0008A8162960FB6F894DEBF0FBECDBFCF911F
:1057E000DF911F910F91FF90EF900895DF93CF937A
:1057F000CDB7DEB728970FB6F894DEBF0FBECDBF8A
:105800009E838D8378876F838D819E819C838B831C
:105810001982EB81FC8183A98A83EB81FC8182E080
:1058200083ABEB81FC8187A590A9A1A9B2A90196C0
:10583000A11DB11DEB81FC8187A790ABA1ABB2ABE1
:105840008A81813009F04FC08091D006882361F5AC
:105850008B819C8102960E94B80BEB81FC8196891A
:105860008091C606891728F4EB81FC818689809394
:10587000C606EB81FC818689282F30E0C901880F9C
:10588000991F880F991F880F991F820F931FAC01D2
:105890004F52594F8B819C819C012E5F3F4FCA0113
:1058A000B9010E94080B0AC08B819C819C01245F76
:1058B0003F4F86E297E0B9010E94080BEB81FC8123
:1058C0009689E091C006F091C1068689891758F43F
:1058D0008F819885009721F0EF81F88581E08083A2
:1058E00081E08093C90628960FB6F894DEBF0FBEFC
:1058F000CDBFCF91DF910895DF93CF93CDB7DEB7C2
:1059000027970FB6F894DEBF0FBECDBF9D838C8363
:105910008C819D81009739F48091C0069091C106D9
:105920009F838E8304C08C819D819F838E838E8113
:105930009F819B838A830FB6F8940F92EA81FB8143
:1059400083A9823031F4EA81FB8113AA81E0898343
:1059500001C019820F900FBE898127960FB6F89467
:10596000DEBF0FBECDBFCF91DF910895DF93CF9300
:10597000CDB7DEB727970FB6F894DEBF0FBECDBF09
:105980009E838D836F838091C4069091C5069A8310
:1059900089838091C0069091C10602960E94B80B3F
:1059A0008D819E812FEF8F3F920781F48F81882315
:1059B00069F08091C0069091C1069C012E5F3F4F17
:1059C00088E397E0B9010E94080B43C029813A811E
:1059D0008D819E81820F931F9C838B83E091C006F3
:1059E000F091C1068B819C81938382832B813C81C2
:1059F00089819A812817390770F480912407909142
:105A000025072091C0063091C1062E5F3F4FB90196
:105A10000E944C0B1EC04091220750912307809199
:105A2000C0069091C1069C012E5F3F4FCA01B9018B
:105A30000E944C0B2091CC063091CD068B819C812D
:105A40008217930730F48B819C819093CD068093CD
:105A5000CC0627960FB6F894DEBF0FBECDBFCF9110
:105A6000DF910895FB01DC0102C001900D924150CD
:105A70005040D8F70895DC0101C06D93415050406B
:085A8000E0F70895F894FFCF50
:105A8800496E69745F48775F5461736B7300507532
:105A98007368427574746F6E415F5461736B005024
:105AA800757368427574746F6E425F5461736B00EE
:105AB8004C45445F5461736B004C43445F546173BD
:105AC8006B00427920425554544F4E204100427990
