:100000000C942A000C9447000C9447000C94470071
:100010000C9447000C9447000C9447000C94ED0D91
:100020000C9447000C9447000C9447000C94470034
:100030000C9447000C9447000C9447000C94470024
:100040000C9447000C9447000C9447000C94470014
:100050000C94470011241FBECFE5D8E0DEBFCDBF12
:1000600010E0A0E6B0E0E2EAF3E502C005900D92F0
:10007000A03CB107D9F717E0A0ECB0E001C01D9299
:10008000A731B107E1F70E94FF0A0C94CF290C9425
:100090000000DF93CF9300D0CDB7DEB789836A83AA
:1000A0008A81813009F06DC089818830A0F4ABE38A
:1000B000B0E0EBE3F0E08081482F8981282F30E029
:1000C00081E090E0022E02C0880F991F0A94E2F7A7
:1000D000842B8C93C8C089818830C8F08981803195
:1000E000B0F4A8E3B0E0E8E3F0E08081482F898134
:1000F000882F90E008979C0181E090E0022E02C0DA
:10010000880F991F0A94E2F7842B8C93ACC08981E5
:100110008031C8F089818831B0F4A5E3B0E0E5E32F
:10012000F0E08081482F8981882F90E040979C01E2
:1001300081E090E0022E02C0880F991F0A94E2F736
:10014000842B8C9390C08981883108F48CC089817C
:10015000803208F088C0A2E3B0E0E2E3F0E0808102
:10016000482F8981882F90E048979C0181E090E09A
:10017000022E02C0880F991F0A94E2F7842B8C93F9
:1001800072C08A81882309F06EC089818830A8F402
:10019000ABE3B0E0EBE3F0E08081482F8981282FCA
:1001A00030E081E090E0022E02C0880F991F0A948F
:1001B000E2F7809584238C9356C089818830D0F0F3
:1001C00089818031B8F4A8E3B0E0E8E3F0E0808111
:1001D000482F8981882F90E008979C0181E090E06A
:1001E000022E02C0880F991F0A94E2F7809584239B
:1001F0008C9339C089818031D0F089818831B8F4FD
:10020000A5E3B0E0E5E3F0E08081482F8981882F05
:1002100090E040979C0181E090E0022E02C0880FA0
:10022000991F0A94E2F7809584238C931CC08981DE
:100230008831C8F089818032B0F4A2E3B0E0E2E313
:10024000F0E08081482F8981882F90E048979C01B9
:1002500081E090E0022E02C0880F991F0A94E2F715
:10026000809584238C930F900F90CF91DF91089508
:10027000DF93CF9300D0CDB7DEB7898389818830F3
:1002800098F4E9E3F0E08081282F30E08981882F1D
:1002900090E0A90102C0559547958A95E2F7CA01F9
:1002A000582F51705A8350C089818830B8F08981A5
:1002B0008031A0F4E6E3F0E08081282F30E08981EE
:1002C000882F90E00897A90102C0559547958A9517
:1002D000E2F7CA01582F51705A8336C089818031A4
:1002E000B8F089818831A0F4E3E3F0E08081282F21
:1002F00030E08981882F90E04097A90102C0559590
:1003000047958A95E2F7CA01582F51705A831CC04D
:1003100089818831B8F089818032A0F4E0E3F0E08F
:100320008081282F30E08981882F90E04897A901AB
:1003300002C0559547958A95E2F7CA01582F51702A
:100340005A8302C088E08A838A810F900F90CF91F0
:10035000DF910895DF93CF9300D0CDB7DEB78983C7
:100360006A838A81882309F071C089818830A8F462
:10037000AAE3B0E0EAE3F0E08081482F8981282FEA
:1003800030E081E090E0022E02C0880F991F0A94AD
:10039000E2F7809584238C93C7C089818830D0F0A0
:1003A00089818031B8F4A7E3B0E0E7E3F0E0808131
:1003B000482F8981882F90E008979C0181E090E088
:1003C000022E02C0880F991F0A94E2F780958423B9
:1003D0008C93AAC089818031D0F089818831B8F4AA
:1003E000A4E3B0E0E4E3F0E08081482F8981882F26
:1003F00090E040979C0181E090E0022E02C0880FBF
:10040000991F0A94E2F7809584238C938DC089818B
:10041000883108F489C08981803208F085C0A1E361
:10042000B0E0E1E3F0E08081482F8981882F90E0FF
:1004300048979C0181E090E0022E02C0880F991F2E
:100440000A94E2F7809584238C936EC08A81813070
:1004500009F06AC089818830A0F4AAE3B0E0EAE339
:10046000F0E08081482F8981282F30E081E090E002
:10047000022E02C0880F991F0A94E2F7842B8C93F6
:1004800053C089818830C8F089818031B0F4A7E3F6
:10049000B0E0E7E3F0E08081482F8981882F90E089
:1004A00008979C0181E090E0022E02C0880F991FFE
:1004B0000A94E2F7842B8C9337C089818031C8F08D
:1004C00089818831B0F4A4E3B0E0E4E3F0E0808116
:1004D000482F8981882F90E040979C0181E090E02F
:1004E000022E02C0880F991F0A94E2F7842B8C9386
:1004F0001BC089818831C0F089818032A8F4A1E3D2
:10050000B0E0E1E3F0E08081482F8981882F90E01E
:1005100048979C0181E090E0022E02C0880F991F4D
:100520000A94E2F7842B8C930F900F90CF91DF9178
:100530000895DF93CF93CDB7DEB78AE060E00E94E5
:10054000AA0184E160E00E94AA01CF91DF910895A1
:10055000DF93CF930F92CDB7DEB78AE089838AE02D
:100560000E943801882319F482E0898307C084E15E
:100570000E943801882311F481E0898389810F90DA
:10058000CF91DF910895EF92FF920F93DF93CF9376
:1005900000D0CDB7DEB79A83898383E061E040E085
:1005A0000E94760E9093C5008093C40083E061E0C2
:1005B00040E00E94760E9093C7008093C60086E2CA
:1005C00093E020E630E0E0ECF0E0B90146E950E0ED
:1005D00020E030E005E07F010E94A61C88E393E064
:1005E0002AE630E0B90146E950E020E030E003E0DF
:1005F000EE24FF240E94A61C82EA93E02AE730E062
:10060000B90146E950E020E030E001E0EE24FF24AB
:100610000E94A61C83E694E023E830E0B90146E995
:1006200050E020E030E002E0EE24FF240E94A61C0F
:100630008091C2009091C3000E94E61E0F900F901F
:10064000CF91DF910F91FF90EF900895DF93CF93BB
:1006500000D0CDB7DEB79A8389830E9499020E94A9
:1006600040088091C0009091C1000E94E61EF5CF25
:10067000DF93CF9300D000D00F92CDB7DEB79D832C
:100680008C8381E08B831A8219828A81882379F492
:100690000E94A802813059F40E94A80289838A81AD
:1006A0008F5F8A838AE090E00E94C41EEECF8A8129
:1006B000813009F513C081E08B838091C400909153
:1006C000C5009E012D5F3F4FB90144E650E020E098
:1006D0000E94020F84E690E00E94C41E0E94A802BD
:1006E000982F8981981739F382E08A8384E690E015
:1006F0000E94C41ECACF8A81823081F41B828091FD
:10070000C4009091C5009E012D5F3F4FB90144E6A2
:1007100050E020E00E94020F1A82B7CF83E08B8363
:100720008091C4009091C5009E012D5F3F4FB9019B
:1007300044E650E020E00E94020F84E690E00E9430
:10074000C41EA3CFDF93CF93CDB7DEB7AF970FB65D
:10075000F894DEBF0FBECDBF9DA38CA384E690E0CE
:100760000E94C41ECE0106969FA38EA3E2E9F0E08C
:10077000F9A7E8A7F1E1FAA7E8A5F9A5008088A5FF
:1007800099A5019699A788A7EEA1FFA100828EA145
:100790009FA101969FA38EA39AA591509AA7EAA51F
:1007A000EE2351F7CE0147969CA78BA7E3EAF0E032
:1007B000FEA7EDA7FDE0FFA7EDA5FEA500808DA596
:1007C0009EA501969EA78DA7EBA5FCA500828BA5F3
:1007D0009CA501969CA78BA79FA591509FA7EFA5CD
:1007E000EE2351F71B821A8219828091C4009091E6
:1007F000C5009E012C5F3F4FB9014AE050E00E94C6
:1008000057108091C6009091C7009E012B5F3F4F0B
:10081000B9014AE050E00E9457108B81882319F0FB
:100820008B818F5F8B838C81813059F49E012A5F8D
:100830003F4F81E060E0A9010E94A60981E08A8320
:1008400014C08C81882389F41A828981813059F4FB
:100850000E94BF099E01295E3F4F80E060E0A90130
:100860000E94A60902C00E94BF098D81823089F4CE
:100870009E01295E3F4F80E060E0A9010E94A60929
:100880008B81882319F48B818F5F8B8381E089832F
:100890001D828B818A3091F41B8219828A8181307A
:1008A00059F40E94BF099E012A5F3F4F81E060E03A
:1008B000A9010E94A60902C00E94BF0984E190E03C
:1008C0000E94C41E92CFDF93CF9300D00F92CDB77A
:1008D000DEB79B838A8382E089838091C6009091F2
:1008E000C7009E012F5F3F4FB9014AE050E020E072
:1008F0000E94020F80E991E00E94C41EEECFDF93B8
:10090000CF9300D0CDB7DEB78BE090E00E94C40754
:100910009A83898389819A81009749F0E981FA81D4
:100920001182108289819A8102960E94C909898167
:100930009A810F900F90CF91DF910895DF93CF931D
:10094000CDB7DEB760970FB6F894DEBF0FBECDBF50
:100950009A8789877C876B875E874D87388B2F873F
:1009600089859A859C838B8319820E949120EB81D3
:10097000FC818081918198878F8389859A852B85D9
:100980003C85B9010E9475062F8138858B859C8531
:10099000282B392B8D859E85282339238D859E858F
:1009A00028173907C9F42F8138858B859C85822BC0
:1009B000932B9E838D83EB81FC81208131818D85FA
:1009C0009E858095909582239323EB81FC81918372
:1009D0008083188A1F861EC08F859889009791F0A2
:1009E0008B819C81BC016E5F7F4F8D859E859C01B4
:1009F00035604F855889CB01B9010E9401231E82C1
:100A00001D8208C0EB81FC81808191819E838D8352
:100A100081E089830E949D208A838F859889009731
:100A200009F43AC08A81882311F40E94DB0C0E94E9
:100A300074259E838D838D819E8180709270009736
:100A400031F50FB6F8940F92EB81FC818081918192
:100A50009E838D832D813E818D859E85282339231C
:100A60008D859E852817390771F4EB81FC812081E3
:100A700031818D859E858095909582239323EB818E
:100A8000FC81918380830F900FBE81E089838D81EB
:100A90009E8190709E838D838D819E8160960FB61E
:100AA000F894DEBF0FBECDBFCF91DF9108950F93B5
:100AB0001F93DF93CF93CDB7DEB763970FB6F8944C
:100AC000DEBF0FBECDBF9D878C877F876E87488B2B
:100AD000298B1B8B0A8B8C859D859B878A871F8220
:100AE0001E821B820E949120EA85FB858081918174
:100AF0009A83898389819A812E853F85B9014989A5
:100B00000E9492078D838D818823C1F089819A810B
:100B1000998788871B8A1A8A88898823E9F1EA8558
:100B2000FB85208131818E859F85809590958223DC
:100B30009323EA85FB85918380832EC08A899B89D4
:100B4000009739F489819A819987888781E08B831E
:100B500023C08889882329F08E819F8191609F839B
:100B60008E838989882329F08E819F8194609F8359
:100B70008E838A859B85BC016E5F7F4F2E853F8566
:100B80008E819F81282B392B4A895B89CB01B90142
:100B90000E940123198618860E949D208C838A89D1
:100BA0009B89009709F43CC08C81882311F40E9432
:100BB000DB0C0E94742599878887888599858070C9
:100BC0009270009741F50FB6F8940F92EA85FB8575
:100BD0008081918199878887888599852E853F8531
:100BE000B90149890E949207882389F0888988235E
:100BF00071F0EA85FB85208131818E859F85809506
:100C0000909582239323EA85FB859183808381E0FD
:100C10008B830F900FBE8885998590709987888700
:100C20008885998563960FB6F894DEBF0FBECDBF59
:100C3000CF91DF911F910F910895DF93CF93CDB79F
:100C4000DEB728970FB6F894DEBF0FBECDBF9E83E8
:100C50008D8378876F838D819E819C838B830FB674
:100C6000F8940F92EB81FC81808191819A83898332
:100C7000EB81FC81208131818F81988580959095D1
:100C800082239323EB81FC81918380830F900FBE9D
:100C900089819A8128960FB6F894DEBF0FBECDBF2A
:100CA000CF91DF910895DF93CF93CDB7DEB727972C
:100CB0000FB6F894DEBF0FBECDBF9F838E838E81AB
:100CC0009F819C838B831D82EB81FC81808191813C
:100CD0009A83898389819A8127960FB6F894DEBF1B
:100CE0000FBECDBFCF91DF910895DF93CF93CDB7E6
:100CF000DEB765970FB6F894DEBF0FBECDBF9B8BF6
:100D00008A8B7D8B6C8B198618868A899B899B833D
:100D10008A8319828A819B8102969B878A878A852A
:100D20009B8503969D878C870E949120EA85FB8591
:100D300085819681998B888BEA81FB812081318125
:100D40008C899D89822B932BEA81FB8191838083FF
:100D500059C0E889F989828193819F878E87E889C4
:100D6000F989808191819F838E8319828E819F81F1
:100D700080709D838C838E819F8190709F838E83F2
:100D80008C819D8180709470009769F4EA81FB8169
:100D9000208131818E819F8182239323009791F05E
:100DA00081E089830FC0EA81FB81208131818E81BE
:100DB0009F81282339238E819F812817390711F4B9
:100DC00081E0898389818823C9F08C819D8180702D
:100DD0009170009741F0888599852E813F81822B03
:100DE000932B99878887EA81FB81808191819C017F
:100DF000326088899989B9010E949C238E859F85DC
:100E0000998B888B288939898C859D852817390786
:100E100009F09FCFEA81FB81208131818885998506
:100E20008095909582239323EA81FB81918380832F
:100E30000E949D20EA81FB818081918165960FB699
:100E4000F894DEBF0FBECDBFCF91DF910895DF9341
:100E5000CF9300D000D000D0CDB7DEB79E838D8376
:100E60008D819E819C838B838B819C8102969A834A
:100E700089830E94912008C0E981FA818581968149
:100E800060E072E00E949C23E981FA8180818823DE
:100E900099F78B819C810E941A080E949D202696BA
:100EA0000FB6F894DEBF0FBECDBFCF91DF9108958E
:100EB000DF93CF9300D000D000D0CDB7DEB79A83B8
:100EC00089834B835C836D837E8389819A812B81A7
:100ED0003C81B9010E94750626960FB6F894DEBFD4
:100EE0000FBECDBFCF91DF910895DF93CF9300D098
:100EF00000D000D0CDB7DEB79A8389834B835C8363
:100F00006D837E8389819A812B813C81B9010E9406
:100F10001D0626960FB6F894DEBF0FBECDBFCF914B
:100F2000DF910895DF93CF9300D000D000D0CDB7EC
:100F3000DEB79B838A837D836C834E8319828E8187
:100F4000882359F48A819B812C813D8182239323BC
:100F5000009781F081E089830DC02A813B818C81DB
:100F60009D81282339238C819D812817390711F40D
:100F700081E08983898126960FB6F894DEBF0FBE83
:100F8000CDBFCF91DF910895DF93CF9300D000D0F4
:100F9000CDB7DEB79C838B831A8219820E94912081
:100FA0008091CA009091CB00009731F48DEC90E0D5
:100FB0009093CB008093CA008091C8009091C900A3
:100FC0002B813C81820F931F25E08B3D920738F5E2
:100FD0002091C8003091C9008B819C81280F391F56
:100FE0008091C8009091C90082179307C0F42091A6
:100FF000CA003091CB008091C8009091C900820F47
:10100000931F9A8389832091C8003091C9008B81F6
:101010009C81820F931F9093C9008093C8000E9407
:101020009D2089819A810F900F900F900F90CF9102
:10103000DF910895DF93CF9300D0CDB7DEB79A83C9
:1010400089830F900F90CF91DF910895DF93CF9315
:10105000CDB7DEB71092C9001092C800CF91DF91D2
:101060000895DF93CF93CDB7DEB72091C8003091BC
:10107000C9008BED95E0821B930BCF91DF91089512
:10108000DF93CF93CDB7DEB7AAE3B0E0EAE3F0E0B9
:1010900080818E608C93AAE3B0E0EAE3F0E0808187
:1010A000806F8C9382E00E94610888E20E94610850
:1010B0008CE00E94610881E00E946108CF91DF917D
:1010C0000895DF93CF930F92CDB7DEB78983ABE35B
:1010D000B0E0EBE3F0E080818D7F8C93ABE3B0E098
:1010E000EBE3F0E080818B7F8C9381E090E00E94C5
:1010F000C41EABE3B0E0EBE3F0E0808188608C934A
:1011000081E090E00E94C41EABE3B0E0EBE3F0E0CE
:101110008081982F9F708981807F892B8C9381E0BB
:1011200090E00E94C41EABE3B0E0EBE3F0E080810E
:10113000877F8C9381E090E00E94C41EABE3B0E017
:10114000EBE3F0E0808188608C9381E090E00E9486
:10115000C41EABE3B0E0EBE3F0E08081282F2F70FA
:101160008981882F90E082959295907F9827807F43
:101170009827822B8C9381E090E00E94C41EABE301
:10118000B0E0EBE3F0E08081877F8C9381E090E03A
:101190000E94C41E0F90CF91DF910895DF93CF93EB
:1011A0000F92CDB7DEB78983ABE3B0E0EBE3F0E0BD
:1011B000808182608C93ABE3B0E0EBE3F0E0808170
:1011C0008B7F8C9381E090E00E94C41EABE3B0E083
:1011D000EBE3F0E0808188608C9381E090E00E94F6
:1011E000C41EABE3B0E0EBE3F0E08081982F9F708A
:1011F0008981807F892B8C9381E090E00E94C41EBE
:10120000ABE3B0E0EBE3F0E08081877F8C9381E09B
:1012100090E00E94C41EABE3B0E0EBE3F0E080811D
:1012200088608C9381E090E00E94C41EABE3B0E044
:10123000EBE3F0E08081282F2F708981882F90E0E8
:1012400082959295907F9827807F9827822B8C9308
:1012500081E090E00E94C41EABE3B0E0EBE3F0E07D
:101260008081877F8C9381E090E00E94C41E0F9064
:10127000CF91DF910895DF93CF9300D00F92CDB738
:10128000DEB79B838A8319820EC08981282F30E0C4
:101290008A819B81FC01E20FF31F80810E94CE08AE
:1012A00089818F5F89838981282F30E08A819B81A2
:1012B000FC01E20FF31F8081882339F70F900F9014
:1012C0000F90CF91DF910895DF93CF9300D000D09E
:1012D0000F92CDB7DEB78A836B838A81282F30E0E7
:1012E0003D832C838C819D8181309105C1F02C81BF
:1012F0003D81223031052CF48C819D81009761F075
:1013000019C02C813D812230310569F08C819D818D
:101310008330910561F00EC08B8189830BC08B8176
:10132000805C898307C08B81805F898303C08B8148
:10133000805B8983898180680E9461080F900F908B
:101340000F900F900F90CF91DF910895DF93CF937F
:1013500000D000D0CDB7DEB789836A835C834B832E
:1013600089816A810E9464098B819C810E943B096A
:101370000F900F900F900F90CF91DF910895DF9312
:10138000CF93CDB7DEB781E00E946108CF91DF91A6
:101390000895DF93CF9300D0CDB7DEB79A838983CA
:1013A00089819A810396E981FA8192838183E98117
:1013B000FA818FEF9FEF9483838389819A810396CB
:1013C000E981FA819683858389819A810396E981EF
:1013D000FA8190878783E981FA8110820F900F90BC
:1013E000CF91DF910895DF93CF9300D0CDB7DEB7D3
:1013F0009A838983E981FA81118610860F900F9074
:10140000CF91DF910895DF93CF9300D000D000D02B
:10141000CDB7DEB79C838B837E836D83EB81FC81AC
:10142000818192819A838983ED81FE8189819A816C
:1014300093838283E981FA8184819581ED81FE81A4
:1014400095838483E981FA810480F581E02D8D8183
:101450009E8193838283E981FA818D819E81958328
:101460008483ED81FE818B819C8191878087EB81D4
:10147000FC8180818F5FEB81FC81808326960FB693
:10148000F894DEBF0FBECDBFCF91DF910895DF93FB
:10149000CF93CDB7DEB728970FB6F894DEBF0FBE57
:1014A000CDBF9E838D8378876F83EF81F8858081A0
:1014B00091819A83898389819A812FEF8F3F920747
:1014C00039F4ED81FE81878190859C838B8318C0E0
:1014D0008D819E8103969C838B8306C0EB81FC816A
:1014E000828193819C838B83EB81FC810280F381D9
:1014F000E02D2081318189819A818217930770F7CD
:10150000EB81FC8182819381EF81F88593838283D3
:10151000EF81F8850280F381E02D8F819885958396
:101520008483EF81F8858B819C8195838483EB8113
:10153000FC818F81988593838283EF81F8858D81EB
:101540009E8191878087ED81FE8180818F5FED8113
:10155000FE81808328960FB6F894DEBF0FBECDBF04
:10156000CF91DF910895DF93CF9300D000D0CDB716
:10157000DEB79C838B83EB81FC81808591859A8388
:101580008983EB81FC81A281B381EB81FC81848121
:10159000958115969C938E931497EB81FC81A48181
:1015A000B581EB81FC818281938113969C938E930C
:1015B0001297E981FA81218132818B819C812817E0
:1015C000390741F4EB81FC8184819581E981FA81BD
:1015D00092838183EB81FC8111861086E981FA81F7
:1015E00080818150E981FA818083E981FA8180815B
:1015F0000F900F900F900F90CF91DF910895EF9281
:10160000FF920F93DF93CF93CDB7DEB783EC92E0D9
:1016100020EB30E0E2ECF0E0B90146E950E020E0F8
:1016200030E004E07F010E94A61C8CE061E00E9493
:10163000AA010E945320FFCFDF93CF93CDB7DEB72F
:1016400028970FB6F894DEBF0FBECDBF9C838B8367
:101650007E836D8358874F83EB81FC8181E180839A
:101660008B819C8101979C838B83EB81FC8182E23F
:1016700080838B819C8101979C838B83EB81FC8190
:1016800083E380838B819C8101979C838B838D81F5
:101690009E819A8389838981EB81FC8180838B8100
:1016A0009C8101979C838B8389819A81892F9927BB
:1016B0009A8389838981EB81FC8180838B819C81E2
:1016C00001979C838B83EB81FC8110828B819C81B1
:1016D00001979C838B83EB81FC8180E880838B81E5
:1016E0009C8101979C838B83EB81FC8110828B8191
:1016F0009C8101979C838B83EB81FC8182E08083BA
:101700008B819C8101979C838B83EB81FC8183E09F
:1017100080838B819C8101979C838B83EB81FC81EF
:1017200084E080838B819C8101979C838B83EB81F8
:10173000FC8185E080838B819C8101979C838B83D6
:10174000EB81FC8186E080838B819C8101979C8367
:101750008B83EB81FC8187E080838B819C81019767
:101760009C838B83EB81FC8188E080838B819C81CF
:1017700001979C838B83EB81FC8189E080838B8143
:101780009C8101979C838B83EB81FC8180E180832A
:101790008B819C8101979C838B83EB81FC8181E110
:1017A00080838B819C8101979C838B83EB81FC815F
:1017B00082E180838B819C8101979C838B83EB8169
:1017C000FC8183E180838B819C8101979C838B8347
:1017D000EB81FC8184E180838B819C8101979C83D8
:1017E0008B83EB81FC8185E180838B819C810197D8
:1017F0009C838B83EB81FC8186E180838B819C8140
:1018000001979C838B83EB81FC8187E180838B81B3
:101810009C8101979C838B83EB81FC8188E1808391
:101820008B819C8101979C838B83EB81FC8189E177
:1018300080838B819C8101979C838B83EB81FC81CE
:1018400080E280838B819C8101979C838B83EB81D9
:10185000FC8181E280838B819C8101979C838B83B7
:10186000EB81FC8182E280838B819C8101979C8348
:101870008B83EB81FC8183E280838B819C81019748
:101880009C838B838F8198859A8389838981EB815F
:10189000FC8180838B819C8101979C838B838981D0
:1018A0009A81892F99279A8389838981EB81FC8189
:1018B00080838B819C8101979C838B83EB81FC814E
:1018C00086E280838B819C8101979C838B83EB8153
:1018D000FC8187E280838B819C8101979C838B8331
:1018E000EB81FC8188E280838B819C8101979C83C2
:1018F0008B83EB81FC8189E280838B819C810197C2
:101900009C838B83EB81FC8180E380838B819C8132
:1019100001979C838B83EB81FC8181E380838B81A6
:101920009C8101979C838B838B819C8128960FB629
:10193000F894DEBF0FBECDBFCF91DF910895DF9346
:10194000CF93CDB7DEB70E94910DA091A806B091BC
:10195000A906CD91CDBFDD91DEBFFF91EF91DF9163
:10196000CF91BF91AF919F918F917F916F915F9137
:101970004F913F912F911F910F91FF90EF90DF902A
:10198000CF90BF90AF909F908F907F906F905F901F
:101990004F903F902F901F900F900FBE0F90089583
:1019A00081E0CF91DF910895DF93CF93CDB7DEB77C
:1019B000CF91DF9108950F920FB6F8940F921F9276
:1019C00011242F923F924F925F926F927F928F924B
:1019D0009F92AF92BF92CF92DF92EF92FF920F93BE
:1019E0001F932F933F934F935F936F937F938F93A7
:1019F0009F93AF93BF93CF93DF93EF93FF93A09108
:101A0000A806B091A9060DB60D920EB60D920E94D1
:101A10007222A091A806B091A906CD91CDBFDD910B
:101A2000DEBFFF91EF91DF91CF91BF91AF919F9179
:101A30008F917F916F915F914F913F912F911F9166
:101A40000F91FF90EF90DF90CF90BF90AF909F905D
:101A50008F907F906F905F904F903F902F901F904E
:101A60000F900FBE0F9008950F920FB6F8940F923B
:101A70001F9211242F923F924F925F926F927F920A
:101A80008F929F92AF92BF92CF92DF92EF92FF928E
:101A90000F931F932F933F934F935F936F937F9376
:101AA0008F939F93AF93BF93CF93DF93EF93FF9366
:101AB000A091A806B091A9060DB60D920EB60D9292
:101AC0000E948D21882311F00E947222A091A80605
:101AD000B091A906CD91CDBFDD91DEBFFF91EF9111
:101AE000DF91CF91BF91AF919F918F917F916F9136
:101AF0005F914F913F912F911F910F91FF90EF9028
:101B0000DF90CF90BF90AF909F908F907F906F901D
:101B10005F904F903F902F901F900F900FBE0F90AF
:101B20000895DF93CF9300D000D000D0CDB7DEB7BB
:101B300080E49FE1A0E0B0E08B839C83AD83BE8313
:101B40008B819C81AD81BE81689415F8B695A7956F
:101B5000979587951694D1F78B839C83AD83BE832D
:101B60008B819C81AD81BE810197A109B1098B83D5
:101B70009C83AD83BE838B8189838B819C81AD8166
:101B8000BE81892F9A2FAB2FBB278B839C83AD837C
:101B9000BE838B818A83EBE4F0E08A818083EAE470
:101BA000F0E0898180838BE08983EEE4F0E0898135
:101BB0008083E9E5F0E08081898389818061898380
:101BC000E9E5F0E08981808326960FB6F894DEBFC0
:101BD0000FBECDBFCF91DF9108950E94340D1895AF
:101BE000DF93CF9300D000D00F92CDB7DEB79C83A8
:101BF0008B836D838B819C819A8389830FB6F89444
:101C00000F92E981FA8140815181E981FA81838DC6
:101C1000282F30E0E981FA81848D882F90E0BC0183
:101C2000269FC001279F900D369F900D1124840F91
:101C3000951FE981FA8195838483E981FA81128E67
:101C4000E981FA8180819181E981FA81938382839C
:101C5000E981FA8140815181E981FA81838D882F60
:101C600090E09C0121503040E981FA81848D882FD9
:101C700090E0BC01269FC001279F900D369F900DDC
:101C80001124840F951FE981FA8197838683E98166
:101C9000FA818FEF858FE981FA818FEF868F8D81B1
:101CA000882379F4E981FA8180858823A1F08981EC
:101CB0009A8108960E943123882369F00E94DB0CE8
:101CC0000AC089819A8108960E94C90989819A81EE
:101CD00041960E94C9090F900FBE81E00F900F90AE
:101CE0000F900F900F90CF91DF9108950F931F9356
:101CF000DF93CF93CDB7DEB729970FB6F894DEBF49
:101D00000FBECDBF8F83688749878885882319F4E4
:101D10001C821B8210C08F81282F30E08885882F7D
:101D200090E0AC01249FC001259F900D349F900D41
:101D300011249C838B838B819C814F960E94C407C6
:101D40009E838D838D819E810097A1F08D819E81E0
:101D50009A83898389819A814F969A83898329817D
:101D60003A81ED81FE818F816885A90129858F01E6
:101D70000E94C70E8D819E8129960FB6F894DEBF12
:101D80000FBECDBFCF91DF911F910F9108950F939B
:101D90001F93DF93CF93CDB7DEB727970FB6F89495
:101DA000DEBF0FBECDBF89836A835C834B832D83E7
:101DB0001F830E838A81882339F48E819F81EE816F
:101DC000FF819183808306C08B819C81EE81FF819E
:101DD00091838083EE81FF818981838FEE81FF81F2
:101DE0008A81848F8E819F8161E00E94F00D279609
:101DF0000FB6F894DEBF0FBECDBFCF91DF911F911C
:101E00000F910895DF93CF93CDB7DEB72F970FB61D
:101E1000F894DEBF0FBECDBF998788877B876A871E
:101E20005D874C872E871C82888599859A83898354
:101E30000FB6F8940F92E981FA81928DE981FA81C7
:101E4000838D981718F08E85823011F589819A81DB
:101E50002A853B85B9014E850E9454138B83E98105
:101E6000FA818189882351F089819A8141960E9463
:101E70003123882341F00E94DB0C05C08B8188232D
:101E800011F00E94DB0C0F900FBE81E08F875CC0C9
:101E90008C859D85009721F40F900FBE1F8654C03E
:101EA0008C81882331F4CE0105960E94172481E0AD
:101EB0008C830F900FBE0E9491200FB6F8940F9262
:101EC000E981FA81858D8F3F19F4E981FA81158EB8
:101ED000E981FA81868D8F3F19F4E981FA81168EA6
:101EE0000F900FBECE0105969E01245F3F4FB901B2
:101EF0000E943024882309F589819A810E94D01498
:101F00008823A1F089819A8108962C853D85B901A5
:101F10000E94DF2289819A810E9441140E949D20A3
:101F2000882309F085CF0E94DB0C82CF89819A81BA
:101F30000E9441140E949D207BCF89819A810E943A
:101F400041140E949D201F868F852F960FB6F8940E
:101F5000DEBF0FBECDBFCF91DF910895DF93CF934A
:101F6000CDB7DEB72C970FB6F894DEBF0FBECDBF4E
:101F70009F838E83798768875B874A872C878E81CA
:101F80009F819B838A831C82EA81FB81928DEA81F7
:101F9000FB81838D981718F08C85823061F5EA817A
:101FA000FB81868D89838A819B8128853985B9014A
:101FB0004C850E94541389818F3FA9F4EA81FB81EB
:101FC00081898823A9F08A819B8141960E943123CF
:101FD000882371F08A859B85009751F0EA85FB85FF
:101FE00081E0808305C089818F5FEA81FB81868FD4
:101FF00081E08D8301C01D828D812C960FB6F894EF
:10200000DEBF0FBECDBFCF91DF910895DF93CF9399
:10201000CDB7DEB72A970FB6F894DEBF0FBECDBF9F
:1020200098878F837A8769878F8198859C838B8334
:102030001D82EB81FC81828D8A83EB81FC81938DF3
:102040008A81891748F5EB81FC81868D89838A8195
:102050008F5FEB81FC81828F89818F3FA9F4EB81B7
:10206000FC8181898823A9F08B819C8141960E9403
:102070003123882371F089859A85009751F0E9858D
:10208000FA8581E0808305C089818F5FEB81FC81C7
:10209000868F81E08E8301C01E828E812A960FB6C4
:1020A000F894DEBF0FBECDBFCF91DF910895DF93CF
:1020B000CF93CDB7DEB72E970FB6F894DEBF0FBE25
:1020C000CDBF998788877B876A875D874C871C820D
:1020D000888599859B838A830FB6F8940F92EA814D
:1020E000FB81828D898389818823F9F08A819B8194
:1020F0002A853B85B9010E94FA1389818150EA81C2
:10210000FB81828FEA81FB818085882349F08A8167
:102110009B8108960E943123882311F00E94DB0CDA
:102120000F900FBE81E08E8763C08C859D850097E0
:1021300021F40F900FBE1E865BC08C81882331F482
:10214000CE0105960E94172481E08C830F900FBE6C
:102150000E9491200FB6F8940F92EA81FB81858D41
:102160008F3F19F4EA81FB81158EEA81FB81868D10
:102170008F3F19F4EA81FB81168E0F900FBECE01BE
:1021800005969E01245F3F4FB9010E9430248823A9
:1021900009F58A819B810E9494148823A1F08A8189
:1021A0009B8141962C853D85B9010E94DF228A8161
:1021B0009B810E9441140E949D20882309F08CCFAE
:1021C0000E94DB0C89CF8A819B810E9441140E946E
:1021D0009D2082CF8A819B810E9441140E949D2074
:1021E0008A819B810E949414882309F475CF1E86EE
:1021F0008E852E960FB6F894DEBF0FBECDBFCF9161
:10220000DF910895DF93CF93CDB7DEB72C970FB64C
:10221000F894DEBF0FBECDBF998788877B876A871A
:102220001C82888599859B838A830FB6F8940F92C8
:10223000EA81FB81828D898389818823C1F089812C
:102240008150EA81FB81828FEA81FB81808588232E
:1022500049F08A819B8108960E943123882311F0DE
:102260000E94DB0C0F900FBE81E08C8763C08A85D3
:102270009B85009721F40F900FBE1C865BC08C815C
:10228000882331F4CE0105960E94172481E08C83C7
:102290000F900FBE0E9491200FB6F8940F92EA8122
:1022A000FB81858D8F3F19F4EA81FB81158EEA81D0
:1022B000FB81868D8F3F19F4EA81FB81168E0F908A
:1022C0000FBECE0105969E01265F3F4FB9010E94C9
:1022D0003024882309F58A819B810E9494148823E5
:1022E000A1F08A819B8141962A853B85B9010E9494
:1022F000DF228A819B810E9441140E949D208823B5
:1023000009F093CF0E94DB0C90CF8A819B810E94C1
:1023100041140E949D2089CF8A819B810E94411493
:102320000E949D208A819B810E949414882309F435
:102330007CCF1C868C852C960FB6F894DEBF0FBE22
:10234000CDBFCF91DF910895DF93CF93CDB7DEB7A7
:1023500060970FB6F894DEBF0FBECDBF9B878A870C
:102360007D876C875F874E871E828A859B859B83CE
:102370008A830FB6F8940F92EA81FB81828D89835C
:102380008981882331F1EA81FB81868197819D8350
:102390008C838A819B812C853D85B9010E94FA132B
:1023A000EA81FB818C819D8197838683EA81FB8111
:1023B0008189882349F08A819B8141960E9431233B
:1023C000882311F00E94DB0C0F900FBE81E0888BF8
:1023D00063C08E859F85009721F40F900FBE188AE9
:1023E0005BC08E81882331F4CE0107960E941724AA
:1023F00081E08E830F900FBE0E9491200FB6F8945B
:102400000F92EA81FB81858D8F3F19F4EA81FB8170
:10241000158EEA81FB81868D8F3F19F4EA81FB815D
:10242000168E0F900FBECE0107969E01225F3F4F82
:10243000B9010E943024882309F58A819B810E947A
:1024400094148823A1F08A819B8141962E853F8533
:10245000B9010E94DF228A819B810E9441140E945F
:102460009D20882309F085CF0E94DB0C82CF8A81D2
:102470009B810E9441140E949D207BCF8A819B8179
:102480000E9441140E949D208A819B810E94941485
:10249000882309F46ECF188A888960960FB6F8945D
:1024A000DEBF0FBECDBFCF91DF910895DF93CF93F5
:1024B000CDB7DEB72C970FB6F894DEBF0FBECDBFF9
:1024C00098878F837A8769875C874B878F81988508
:1024D0009C838B831D82EB81FC81828D8A838A8120
:1024E000882381F1EB81FC81858D89838B819C819F
:1024F00029853A85B9010E94FA138A818150EB81BE
:10250000FC81828F89818F3FA9F4EB81FC818085DA
:102510008823A9F08B819C8108960E94312388230F
:1025200071F08B859C85009751F0EB85FC8581E0EF
:10253000808305C089818F5FEB81FC81858F81E07D
:102540008E8301C01E828E812C960FB6F894DEBF5A
:102550000FBECDBFCF91DF910895DF93CF93CDB75D
:10256000DEB72A970FB6F894DEBF0FBECDBF9887AF
:102570008F837A8769878F8198859A8389831D8263
:10258000E981FA81828D8823B1F0E981FA8186811F
:1025900097819C838B8389819A8129853A85B901AA
:1025A0000E94FA13E981FA818B819C81978386834B
:1025B00081E08E8301C01E828E812A960FB6F89428
:1025C000DEBF0FBECDBFCF91DF910895DF93CF93D4
:1025D00000D00F92CDB7DEB79B838A830FB6F894F5
:1025E0000F92EA81FB81828D89830F900FBE8981D2
:1025F0000F900F900F90CF91DF910895DF93CF93BD
:1026000000D000D00F92CDB7DEB79D838C838C8134
:102610009D819A8389830FB6F8940F92E981FA819C
:10262000938DE981FA81828D292F281B822F8B833C
:102630000F900FBE8B810F900F900F900F900F9007
:10264000CF91DF910895DF93CF9300D000D00F9208
:10265000CDB7DEB79D838C838C819D819A838983DE
:10266000E981FA81828D8B838B810F900F900F907F
:102670000F900F90CF91DF910895DF93CF9300D00B
:1026800000D0CDB7DEB79C838B838B819C819A83EE
:10269000898389819A810E941A080F900F900F9068
:1026A0000F90CF91DF910895DF93CF93CDB7DEB731
:1026B00027970FB6F894DEBF0FBECDBF9C838B83E8
:1026C0007E836D834F831A82EB81FC81828D8983A7
:1026D000EB81FC81848D882309F47DC08F81882360
:1026E00099F5EB81FC8162817381EB81FC81848DA2
:1026F000482F50E02D813E81CB01B9010E94BF29B6
:10270000EB81FC8122813381EB81FC81848D882FD8
:1027100090E0820F931FEB81FC8193838283EB8196
:10272000FC8122813381EB81FC8184819581281792
:10273000390708F450C0EB81FC8180819181EB81E5
:10274000FC819383828347C0EB81FC816681778122
:10275000EB81FC81848D482F50E02D813E81CB019F
:10276000B9010E94BF29EB81FC8126813781EB8171
:10277000FC81848D882F90E0909581959F4F820FEA
:10278000931FEB81FC8197838683EB81FC812681FB
:102790003781EB81FC81808191812817390790F482
:1027A000EB81FC8124813581EB81FC81848D882F34
:1027B00090E0909581959F4F820F931FEB81FC8154
:1027C000978386838F81823031F48981882319F041
:1027D00089818150898389818F5FEB81FC81828F20
:1027E0008A8127960FB6F894DEBF0FBECDBFCF917A
:1027F000DF910895DF93CF9300D000D0CDB7DEB73F
:102800009A8389837C836B83E981FA81848D882311
:1028100089F1E981FA8126813781E981FA81848D04
:10282000882F90E0820F931FE981FA819783868336
:10283000E981FA8126813781E981FA818481958154
:102840002817390740F0E981FA8180819181E98177
:10285000FA8197838683E981FA8146815781E981EC
:10286000FA81848D282F30E08B819C81BA01A901E7
:102870000E94BF290F900F900F900F90CF91DF9182
:102880000895DF93CF9300D000D0CDB7DEB79C83FF
:102890008B830FB6F8940F92EB81FC81868D8A832F
:1028A00011C0EB81FC818189882379F08B819C8127
:1028B00041960E943123882311F00E949D248A8131
:1028C00081508A838A81181664F3EB81FC818FEF33
:1028D000868F0F900FBE0FB6F8940F92EB81FC819C
:1028E000858D898311C0EB81FC818085882379F0F7
:1028F0008B819C8108960E943123882311F00E94CD
:102900009D248981815089838981181664F3EB8124
:10291000FC818FEF858F0F900FBE0F900F900F905F
:102920000F90CF91DF910895DF93CF9300D00F9256
:10293000CDB7DEB79B838A830FB6F8940F92EA81F6
:10294000FB81828D882319F481E0898301C019827B
:102950000F900FBE89810F900F900F90CF91DF9154
:102960000895DF93CF9300D000D00F92CDB7DEB79C
:102970009D838C838C819D819A838983E981FA81EF
:10298000828D882319F481E08B8301C01B828B81A7
:102990000F900F900F900F900F90CF91DF910895AF
:1029A000DF93CF9300D00F92CDB7DEB79B838A839E
:1029B0000FB6F8940F92EA81FB81928DEA81FB8138
:1029C000838D981719F481E0898301C019820F90D3
:1029D0000FBE89810F900F900F90CF91DF910895D6
:1029E000DF93CF9300D000D00F92CDB7DEB79D8399
:1029F0008C838C819D819A838983E981FA81928D70
:102A0000E981FA81838D981719F481E08B8301C0E5
:102A10001B828B810F900F900F900F900F90CF9192
:102A2000DF9108950F93DF93CF93CDB7DEB728974B
:102A30000FB6F894DEBF0FBECDBF9D838C837F831E
:102A40006E8348878885813019F481E0898301C0CD
:102A500019828E819F81009721F481E090E09F830D
:102A60008E838C819D8101969D838C838C819D8139
:102A70000F960E94C4079B838A838A819B8100975B
:102A800089F06A817B818A819B819C01215F3F4F14
:102A90004C815D81EE81FF81CB01B9019F010981EC
:102AA0000E946A1C8A819B8128960FB6F894DEBF2B
:102AB0000FBECDBFCF91DF910F910895DF93CF93DC
:102AC00000D000D0CDB7DEB79C838B838B819C81F7
:102AD0009A838983E981FA818685882F90E08270C4
:102AE0009070009729F489819A810E941A0808C081
:102AF00089819A8160E070E04FE050E00E94C8292F
:102B00000F900F900F900F90CF91DF9108950F933A
:102B1000DF93CF9300D000D00F92CDB7DEB79D8367
:102B20008C838C819D819B838A8319820FB6F89454
:102B30000F92EA81FB81808591850097F1F4EA810B
:102B4000FB81828593850097C1F4EA81FB8124850E
:102B50003585EA81FB8144815581EA81FB81A6812B
:102B6000B781EA81FB81E6858A819B81B9019D015C
:102B70000E2F0E946A1C81E089830F900FBE89810D
:102B80000F900F900F900F900F90CF91DF910F91BA
:102B90000895DF93CF93CDB7DEB727970FB6F8949C
:102BA000DEBF0FBECDBF9D838C837F836E838C8100
:102BB0009D819B838A838E819F81009721F481E090
:102BC00090E09F838E83EA81FB81248135818E8111
:102BD0009F812817390748F0EA81FB818E819F8108
:102BE0009783868381E0898301C019828981279632
:102BF0000FB6F894DEBF0FBECDBFCF91DF91089521
:102C0000DF93CF9300D000D000D0CDB7DEB79E8346
:102C10008D838D819E819C838B83EB81FC812481BC
:102C20003581EB81FC8180819181820F931F9A8392
:102C30008983EB81FC812281338189819A81821B86
:102C4000930B9A83898389819A8101979A838983D7
:102C5000EB81FC812481358189819A8182179307D8
:102C600050F0EB81FC812481358189819A81821B1E
:102C7000930B9A83898389819A8126960FB6F8945B
:102C8000DEBF0FBECDBFCF91DF910895DF93CF930D
:102C900000D000D000D0CDB7DEB79E838D838D816C
:102CA0009E819C838B838B819C810E94301C9A83A4
:102CB000898389819A8126960FB6F894DEBF0FBE6C
:102CC000CDBFCF91DF910895EF92FF920F931F93A5
:102CD000DF93CF93CDB7DEB763970FB6F894DEBF1F
:102CE0000FBECDBF9D878C877F876E87598B488BA2
:102CF0003B8B2A8B8C859D8598878F831C821B82BA
:102D0000888999899A838983EF81F8858685882FB8
:102D100090E081709070882329F089819A810296D1
:102D20009A8389838A899B89009709F440C0CE01E0
:102D300009960E94F9230FB6F8940F928F81988517
:102D40000E9400169C838B832B813C8189819A8110
:102D50002817390750F580E090E00E9409290E9469
:102D60006225EF81F885938782870F900FBEEA89ED
:102D7000FB8960E070E080E090E020E030E040E03F
:102D800050E000E010E07F010E941226EF81F885FC
:102D900013861286CE0109969E012E5E3F4FB90121
:102DA0000E943024882339F202C00F900FBE8B811D
:102DB0009C81009731F48F8198850E9400169C8336
:102DC0008B838F8198852E853F8548895989EB8132
:102DD000FC81A981BA81B9019F018D010E94A917C7
:102DE0009E838D838D819E81009739F18F81988597
:102DF0000E94301C9C01EF81F885868197812817FD
:102E00003907D8F00E949120EF81F885808591855F
:102E1000009789F0EF81F8858085918540E050E04A
:102E200060E070E020E000E010E00E94AE26EF815C
:102E3000F885118610860E949D208D819E81639663
:102E40000FB6F894DEBF0FBECDBFCF91DF911F91BB
:102E50000F91FF90EF900895EF92FF920F931F93C1
:102E6000DF93CF93CDB7DEB761970FB6F894DEBF8F
:102E70000FBECDBF9B878A877D876C875F874E8714
:102E8000398B288B8A859B85998788878E859F8536
:102E90009B838A83E885F9858685882F90E08170F9
:102EA0009070882329F08A819B8102969B838A8374
:102EB000888599850E9400169D838C8388859985D5
:102EC0002C853D854E855F85EC81FD81AA81BB8186
:102ED000B9019F018D010E94A9179F838E838E8166
:102EE0009F81009739F1888599850E94301C9C014B
:102EF000E885F9858681978128173907D8F01982E6
:102F0000E885F985808591850097A1F0E885F985A8
:102F100080859185E889F98940E050E060E070E0C3
:102F200020E000E010E07F010E948B27E885F98512
:102F3000118610868E819F8161960FB6F894DEBF50
:102F40000FBECDBFCF91DF911F910F91FF90EF90FA
:102F500008950F931F93DF93CF93CDB7DEB761979B
:102F60000FB6F894DEBF0FBECDBF9D838C837F83E9
:102F70006E83598748873B872A871D870C878A85F8
:102F80009B85009711F41B8238C0EC81FD818685FA
:102F9000882F90E0817090700097D1F481E08B834E
:102FA00028853985398B288B8A859B859F878E87D5
:102FB0002E853F85888999898217930720F428896F
:102FC00039893F872E878E859F859987888715C089
:102FD0002A853B858C859D852817390768F081E017
:102FE0008B839E01285F3F4F8C819D81B90142E018
:102FF00050E00E94F61A01C01B828B81882361F089
:103000002E813F81488559858C819D81B9010E941F
:10301000F61A9A83898302C01A82198289819A8159
:1030200061960FB6F894DEBF0FBECDBFCF91DF9192
:103030001F910F910895EF92FF920F931F93DF93CB
:10304000CF93CDB7DEB760970FB6F894DEBF0FBE53
:10305000CDBF9A8789877C876B875E874D87388B42
:103060002F8789859A8598878F831E821D82EF819D
:10307000F8858685882F90E081709070882329F0EC
:1030800082E090E09A83898302C01A8219828F8538
:103090009889009709F43DC00FB6F8940F928F817C
:1030A00098850E94301C9C838B832B813C81898175
:1030B0009A818217930750F080E090E00E940929DE
:1030C0000E946225EF81F885918780870F900FBE5F
:1030D0002B813C8189819A818217930700F1EF85CA
:1030E000F88960E070E080E090E020E030E040E0CF
:1030F00050E000E010E07F010E941226EF81F88589
:10310000118610868F8198850E94301C9C838B834A
:1031100006C08F8198850E94301C9C838B832B81F5
:103120003C8189819A818217930780F58F819885E8
:103130002B853C854D855E85EB81FC81A981BA811B
:10314000B9019F018D010E949F199E838D838D81FE
:103150009E810097D9F00E949120EF81F8858285A9
:103160009385009789F0EF81F8858285938540E00B
:1031700050E060E070E020E000E010E00E94AE2649
:10318000EF81F885138612860E949D208D819E8195
:1031900060960FB6F894DEBF0FBECDBFCF91DF9122
:1031A0001F910F91FF90EF900895DF93CF93CDB7CC
:1031B000DEB72C970FB6F894DEBF0FBECDBF9C874D
:1031C0008B878B859C8598878F83EF81F885868593
:1031D000882F90E081709070882361F18F819885AD
:1031E0000E94301C9C838B838B819C818330910552
:1031F000F0F0EF81F885808191819A8389839E0127
:10320000275F3F4F8F819885EB81FC81B90142E0B8
:1032100050E09F010E94831B89859A859E838D8340
:10322000EF81F88589819A819183808305C01E8210
:103230001D8202C01E821D828D819E812C960FB63A
:10324000F894DEBF0FBECDBFCF91DF910895EF920E
:10325000FF920F931F93DF93CF93CDB7DEB76197A4
:103260000FB6F894DEBF0FBECDBF9B878A877D87E0
:103270006C875F874E87398B288B8A859B859987DA
:1032800088871F821E82E885F9858685882F90E0D1
:1032900081709070882329F082E090E09B838A837C
:1032A00002C01B821A82888599850E94301C9D83EA
:1032B0008C832C813D818A819B818217930780F5C5
:1032C000888599852C853D854E855F85EC81FD81BE
:1032D000AA81BB81B9019F018D010E949F199F8323
:1032E0008E838E819F810097D9F01982E885F985B8
:1032F000828593850097A1F0E885F985828593857D
:10330000E889F98940E050E060E070E020E000E00A
:1033100010E07F010E948B27E885F98513861286CD
:103320008E819F8161960FB6F894DEBF0FBECDBF30
:10333000CF91DF911F910F91FF90EF9008950F9320
:103340001F93DF93CF93CDB7DEB762970FB6F89494
:10335000DEBF0FBECDBF9A8789877C876B875E876C
:103360004D87388B2F871A8B098B89899A8900970B
:1033700091F1E985FA85808191819E838D83AE01EB
:10338000495F5F4F89859A8529893A89EF85F88950
:10339000BA01A9019F010E94831B8F8198859A839E
:1033A00089832F85388989899A89A901481B590BF6
:1033B000CA01988B8F8729813A818D859E858217D6
:1033C000930768F4E985FA858D819E8191838083D6
:1033D0001A82198204C08D859E859A8389834B85C4
:1033E0005C8589859A8529813A81EF85F889BA01BA
:1033F000A9019F010E94831B9C838B838B819C81ED
:1034000062960FB6F894DEBF0FBECDBFCF91DF91AD
:103410001F910F910895DF93CF93CDB7DEB7279714
:103420000FB6F894DEBF0FBECDBF9F838E838E8113
:103430009F819D838C83EC81FD81808191819A8322
:103440008983EC81FD812281338189819A812817CA
:10345000390719F481E08B8301C01B828B81279689
:103460000FB6F894DEBF0FBECDBFCF91DF910895A8
:10347000DF93CF93CDB7DEB727970FB6F894DEBFB3
:103480000FBECDBF9F838E838E819F819A83898358
:10349000E981FA818685882F90E081709070882379
:1034A00029F082E090E09C838B8302C01C821B8207
:1034B0008E819F810E9400169C018B819C818217C6
:1034C000930718F081E08D8301C01D828D812796BE
:1034D0000FB6F894DEBF0FBECDBFCF91DF91089538
:1034E000EF92FF920F931F93DF93CF93CDB7DEB789
:1034F00028970FB6F894DEBF0FBECDBF9E838D8395
:1035000078876F838D819E819C838B831982EB8169
:10351000FC81808591850097B9F0EB81FC818085E5
:103520009185EF81F88540E050E060E070E020E0B8
:1035300000E010E07F010E948B27EB81FC81118667
:10354000108681E08A8301C01A828A8128960FB68C
:10355000F894DEBF0FBECDBFCF91DF911F910F91C9
:10356000FF90EF900895EF92FF920F931F93DF93D8
:10357000CF93CDB7DEB728970FB6F894DEBF0FBE56
:10358000CDBF9E838D8378876F838D819E819C8341
:103590008B831982EB81FC81828593850097B9F03A
:1035A000EB81FC8182859385EF81F88540E050E0D6
:1035B00060E070E020E000E010E07F010E948B27D7
:1035C000EB81FC811386128681E08A8301C01A8216
:1035D0008A8128960FB6F894DEBF0FBECDBFCF917B
:1035E000DF911F910F91FF90EF900895DF93CF939C
:1035F000CDB7DEB72E970FB6F894DEBF0FBECDBFA6
:103600009E838D8378876F835A874987ED81FE81FA
:10361000828193819C838B83ED81FE81248135811E
:103620008B819C81A901481B590BCA0129853A85C8
:103630003E872D879C878B874B855C858D859E85F6
:103640008417950720F42D853E853C872B874B8575
:103650005C855A834983ED81FE81248535858B8184
:103660009C81820F931F2F81388549815A81B9012E
:103670000E94BF2929853A8589819A8182179307FB
:10368000B0F4ED81FE81648575852F81388589814F
:103690009A81A901480F591F29853A8589819A8104
:1036A000281B390BCB01BA01A9010E94BF292B812C
:1036B0003C8189859A85820F931F9C838B83ED8142
:1036C000FE81248135818B819C818217930750F084
:1036D000ED81FE81248135818B819C81821B930B3E
:1036E0009C838B83ED81FE818B819C81938382837C
:1036F00089859A852E960FB6F894DEBF0FBECDBF92
:10370000CF91DF910895DF93CF93CDB7DEB7669762
:103710000FB6F894DEBF0FBECDBF98878F837A8730
:1037200069875C874B873E872D872D853E853A8B41
:10373000298B4B855C85588B4F878F859889298984
:103740003A892817390720F449895A89588B4F87B5
:103750008F8598899E838D838D819E81009709F442
:1037600074C0EF81F885808191819A838983EF818C
:10377000F8852481358189819A81A901481B590BDB
:10378000CA012D813E813E8B2D8B9C8B8B8B4B896F
:103790005C898D899E898417950720F42D893E893F
:1037A0003C8B2B8B4B895C895C834B83EF81F88549
:1037B0002485358589819A81A901480F591F8985FA
:1037C0009A852B813C81BA01A9010E94BF292D81D4
:1037D0003E818B819C8182179307B0F429853A85BD
:1037E0008B819C81B901680F791FEF81F885448531
:1037F00055852D813E818B819C81281B390BCB0106
:10380000BA01A9010E94BF2929813A818D819E8137
:10381000820F931F9A838983EF81F88524813581F4
:1038200089819A818217930750F0EF81F88524816E
:10383000358189819A81821B930B9A838983EF81D9
:10384000F88589819A81918380838D819E81669696
:103850000FB6F894DEBF0FBECDBFCF91DF910895B4
:10386000DF93CF9300D000D0CDB7DEB79C838B839E
:10387000EB81FC8124813581EB81FC818281938104
:10388000820F931F9A838983EB81FC812081318190
:1038900089819A81821B930B9A838983EB81FC81B6
:1038A0002481358189819A818217930750F0EB81B9
:1038B000FC812481358189819A81821B930B9A83B3
:1038C000898389819A810F900F900F900F90CF91EB
:1038D000DF9108950F93DF93CF93CDB7DEB729978C
:1038E0000FB6F894DEBF0FBECDBF9A8389837C8369
:1038F0006B835E834D8338872F83098789819A8103
:1039000060E070E04FE050E00E94C829E981FA8150
:103910008B819C8195878487E981FA818D819E8145
:1039200095838483E981FA818F8198859783868343
:10393000E981FA818985868729960FB6F894DEBFDA
:103940000FBECDBFCF91DF910F9108958F929F92BF
:10395000AF92BF92CF92DF92EF92FF920F931F939D
:10396000DF93CF93CDB7DEB760970FB6F894DEBF85
:103970000FBECDBF9F838E83798768875B874A8719
:103980003D872C870E87F88AEF868A859B850E9463
:10399000C4079A83898389819A810097B1F086E26E
:1039A00090E00E94C4079D838C838C819D81009749
:1039B00039F0EC81FD8189819A81908F878B07C0D6
:1039C00089819A810E941A0802C01D821C828C8102
:1039D0009D810097E9F08A859B859C0140E050E03D
:1039E0008E819F8168857985EC85FD85AF85B88955
:1039F000AC80BD808F01EE846D01882499240E94E3
:103A00001E1D8C819D810E94DA1D81E08B8302C086
:103A10008FEF8B838B8160960FB6F894DEBF0FBE5D
:103A2000CDBFCF91DF911F910F91FF90EF90DF906D
:103A3000CF90BF90AF909F908F9008958F929F925C
:103A4000AF92BF92CF92DF92EF920F931F93DF93CB
:103A5000CF93CDB7DEB764970FB6F894DEBF0FBE35
:103A6000CDBF9D838C837F836E83288739874A8768
:103A70005B871D870C87EE86D88ACF86BA8AA98A8B
:103A80009C8A8B8AE989FA892789308D888599856E
:103A90000197820F931F9B838A838E819F8100975A
:103AA00051F1198221C08981482F50E08981282F46
:103AB00030E08E819F81FC01E20FF31F2081898914
:103AC0009A89840F951FFC01799620838981282F7C
:103AD00030E08E819F81FC01E20FF31F80818823FB
:103AE00031F089818F5F898389818830E0F2E989AB
:103AF000FA8910A203C0E989FA89118E8E85853072
:103B000010F084E08E87E989FA898E85868B898911
:103B10009A8902960E94F30989899A890C960E94D3
:103B2000F309E989FA8989899A89918780878E853D
:103B3000282F30E085E090E0821B930BE989FA8919
:103B400095878487E989FA8989899A89938B828BF9
:103B5000E989FA8911A212A213A214A2E989FA89A9
:103B600015A28A819B812C813D814C855D85B9019F
:103B70000E941C0BE989FA89918380838F8598893B
:103B8000009731F0EF85F88989899A89918380833C
:103B900064960FB6F894DEBF0FBECDBFCF91DF9114
:103BA0001F910F91EF90DF90CF90BF90AF909F90BB
:103BB0008F900895DF93CF9300D0CDB7DEB79A836F
:103BC00089830FB6F8940F928091AB068F5F809334
:103BD000AB068091A8069091A906009769F48981A7
:103BE0009A819093A9068093A8068091AB068130B4
:103BF000B9F40E94B12414C08091AF06882381F4E7
:103C0000E091A806F091A9069689E981FA81868952
:103C1000891730F089819A819093A9068093A8062C
:103C20008091B3068F5F8093B306E981FA8196890C
:103C30008091AE06891728F4E981FA8186898093FC
:103C4000AE06E981FA818689282F30E0C901880F04
:103C5000991F880F991F880F991F820F931FAC011E
:103C60004754594F89819A819C012E5F3F4FCA0169
:103C7000B9010E94030A0F900FBE8091AF068823FE
:103C800061F0E091A806F091A9069689E981FA8190
:103C90008689981710F40E94DB0C0F900F90CF913B
:103CA000DF910895DF93CF9300D000D000D0CDB73F
:103CB000DEB79C838B830FB6F8940F928B819C8127
:103CC000009739F48091A8069091A9069E838D8370
:103CD00004C08B819C819E838D838D819E819A837C
:103CE000898389819A8102960E94B30AE981FA81C7
:103CF00084899589009729F089819A810C960E9480
:103D0000B30A8091B3068F5F8093B3062091A80613
:103D10003091A90689819A818217930781F489815C
:103D20009A819C012E5F3F4F85E097E0B9010E9488
:103D3000030A8091AA068F5F8093AA060BC0809128
:103D4000AB0681508093AB0689819A810E94212520
:103D50000E9437250F900FBE8091AF06882359F03F
:103D60002091A8063091A90689819A81821793072C
:103D700011F40E94DB0C26960FB6F894DEBF0FBE3E
:103D8000CDBFCF91DF910895DF93CF9300D00F92F5
:103D9000CDB7DEB79B838A8319828A819B81009786
:103DA00051F00E9491208A819B8160E00E9443290A
:103DB0000E949D2089838981882311F40E94DB0C55
:103DC0000F900F900F90CF91DF910895DF93CF93D5
:103DD00000D000D000D0CDB7DEB79C838B830FB668
:103DE000F8940F928B819C81009739F48091A806FA
:103DF0009091A9069E838D8304C08B819C819E83B4
:103E00008D838D819E819A83898389819A8102968F
:103E10000E94B30AE981FA8184899589009729F083
:103E200089819A810C960E94B30A89819A819C01AA
:103E30002E5F3F4F8EE097E0B9010E94030AE981AF
:103E4000FA8185A1813019F4E981FA8115A20F90D8
:103E50000FBE8091AF06882339F00FB6F8940F9209
:103E60000E9437250F900FBE2091A8063091A90619
:103E700089819A8182179307A1F48091AF068823E4
:103E800019F00E94DB0C0DC090910E078091AB06DB
:103E9000981729F41092A9061092A80602C00E9451
:103EA000722226960FB6F894DEBF0FBECDBFCF911B
:103EB000DF910895DF93CF9300D000D00F92CDB75C
:103EC000DEB79D838C831B828C819D819A8389833D
:103ED000E981FA818285938527E08E30920781F40B
:103EE000E981FA818489958926E08C3F920741F027
:103EF000E981FA8184899589009711F481E08B83A7
:103F00008B810F900F900F900F900F90CF91DF91BA
:103F10000895DF93CF9300D000D0CDB7DEB79C8358
:103F20008B838B819C819A8389832091A806309111
:103F3000A90689819A818217930709F447C089816C
:103F40009A81009709F442C00FB6F8940F928981C4
:103F50009A810E945A1F8823B9F189819A81029619
:103F60000E94B30AE981FA8196898091AE06891789
:103F700028F4E981FA8186898093AE06E981FA8185
:103F80008689282F30E0C901880F991F880F991F53
:103F9000880F991F820F931FAC014754594F898195
:103FA0009A819C012E5F3F4FCA01B9010E94030A0A
:103FB000E981FA819689E091A806F091A90686899F
:103FC000981710F00E94DB0C0F900FBE0F900F900F
:103FD0000F900F90CF91DF910895DF93CF9300D092
:103FE00000D000D0CDB7DEB79E838D831C828D813B
:103FF0009E819B838A8319828A819B810E945A1F9A
:10400000882309F446C08091B8068823C1F5EA8167
:10401000FB819689E091A806F091A90686899817F8
:1040200010F081E08C838A819B8102960E94B30A02
:10403000EA81FB8196898091AE06891728F4EA818E
:10404000FB8186898093AE06EA81FB818689282FD1
:1040500030E0C901880F991F880F991F880F991F99
:10406000820F931FAC014754594F8A819B819C0159
:104070002E5F3F4FCA01B9010E94030A0AC08A811C
:104080009B819C01245F3F4F8CEF96E0B9010E9419
:10409000030A8C8126960FB6F894DEBF0FBECDBF03
:1040A000CF91DF910895EF92FF920F93DF93CF931B
:1040B0000F92CDB7DEB787EA94E22AEB30E0E6EB69
:1040C000F6E0B90146E950E020E030E000E07F0191
:1040D0000E94A61C89838981813081F4F8948FEF36
:1040E0009FEF9093B5068093B40681E08093AF066E
:1040F0001092AD061092AC060E949F0C0F90CF91CB
:10410000DF910F91FF90EF900895DF93CF93CDB79C
:10411000DEB7F8941092AF060E94D40CCF91DF91D5
:104120000895DF93CF93CDB7DEB78091B8068F5F48
:104130008093B806CF91DF910895DF93CF9300D09D
:1041400000D0CDB7DEB71C821B821A820FB6F8945E
:104150000F928091B80681508093B8068091B8067E
:10416000882309F073C08091AB06882309F46EC0E0
:1041700045C0E0910107F0910207868197819C83F9
:104180008B838B819C810C960E94B30A8B819C81CE
:1041900002960E94B30AEB81FC8196898091AE065B
:1041A000891728F4EB81FC8186898093AE06EB8128
:1041B000FC818689282F30E0C901880F991F880F5C
:1041C000991F880F991F820F931FAC014754594FB5
:1041D0008B819C819C012E5F3F4FCA01B9010E94D7
:1041E000030AEB81FC819689E091A806F091A9066B
:1041F0008689981718F081E08093B1068091FC06BB
:10420000882309F0B6CF8B819C81009711F00E9422
:1042100037258091B00689838981882379F00E94AF
:104220008D21882319F081E08093B1068981815026
:1042300089838981882399F71092B0068091B1060D
:10424000882321F081E08A830E94DB0C0F900FBE4F
:104250008A810F900F900F900F90CF91DF9108956A
:10426000DF93CF9300D0CDB7DEB70FB6F8940F929F
:104270008091AC069091AD069A8389830F900FBE12
:1042800089819A810F900F90CF91DF910895DF93EC
:10429000CF9300D00F92CDB7DEB719828091AC06D4
:1042A0009091AD069B838A838A819B810F900F90AA
:1042B0000F90CF91DF910895DF93CF93CDB7DEB705
:1042C0008091AB06CF91DF910895DF93CF9300D01B
:1042D00000D000D0CDB7DEB79C838B838B819C81CF
:1042E000009739F48091A8069091A9069E838D834A
:1042F00004C08B819C819E838D838D819E819A8356
:10430000898389819A81499626960FB6F894DEBFF3
:104310000FBECDBFCF91DF910895DF93CF93CDB77F
:10432000DEB729970FB6F894DEBF0FBECDBF1D8252
:104330008091B806882309F0C0C08091AC069091A6
:10434000AD0601969C838B838B819C819093AD06F7
:104350008093AC068B819C810097D9F48091F806FC
:104360009091F9069A8389838091FA069091FB06D1
:104370009093F9068093F80689819A819093FB06C1
:104380008093FA068091B2068F5F8093B2060E94F6
:1043900037252091B4063091B5068B819C81821718
:1043A000930708F471C0E091F806F091F906808156
:1043B000882339F48FEF9FEF9093B5068093B4066E
:1043C00063C0E091F806F091F9060580F681E02DD2
:1043D0008681978199878887E885F985828193818D
:1043E0009F838E832B813C818E819F812817390783
:1043F00038F48E819F819093B5068093B40644C0B3
:104400008885998502960E94B30AE885F985848992
:104410009589009729F0888599850C960E94B30AA2
:10442000E885F98596898091AE06891728F4E88594
:10443000F98586898093AE06E885F9858689282FD7
:1044400030E0C901880F991F880F991F880F991FA5
:10445000820F931FAC014754594F888599859C0161
:104460002E5F3F4FCA01B9010E94030AE885F98512
:104470009689E091A806F091A9068689981708F414
:1044800092CF81E08D838FCFE091A806F091A906AD
:104490008689282F30E0C901880F991F880F991F3E
:1044A000880F991F820F931FFC01E754F94F8081F9
:1044B000823040F081E08D8305C08091B0068F5F2F
:1044C0008093B0068091B106882311F081E08D833E
:1044D0008D8129960FB6F894DEBF0FBECDBFCF9168
:1044E000DF910895DF93CF9300D00F92CDB7DEB761
:1044F0008091B806882321F081E08093B10659C0ED
:104500001092B1068091AE068B8303C08B818150DF
:104510008B838B81282F30E0C901880F991F880F6A
:10452000991F880F991F820F931FFC01E754F94FC1
:104530008081882359F38B81282F30E0C901880FAF
:10454000991F880F991F880F991F820F931F8754F7
:10455000994F9A838983E981FA810180F281E02D64
:1045600082819381E981FA8192838183E981FA8151
:104570002181328189819A8103962817390759F45C
:10458000E981FA810180F281E02D82819381E981C4
:10459000FA8192838183E981FA810180F281E02DA1
:1045A000868197819093A9068093A8068B8180933A
:1045B000AE060F900F900F90CF91DF910895DF938B
:1045C000CF9300D000D0CDB7DEB79A8389837C83A8
:1045D0006B838091A8069091A9069C01245F3F4FB0
:1045E00089819A81B9010E94470A8B819C8161E08F
:1045F0000E9443290F900F900F900F90CF91DF9161
:104600000895DF93CF9300D000D000D0CDB7DEB7B0
:104610009A8389837C836B835E834D83E091A806B4
:10462000F091A9068B819C81906895878487809101
:10463000A8069091A9069C01245F3F4F89819A8129
:10464000B9010E94030A8D819E8161E00E94432985
:1046500026960FB6F894DEBF0FBECDBFCF91DF9187
:104660000895DF93CF9300D000D00F92CDB7DEB77F
:104670009D838C83EC81FD810580F681E02D868110
:1046800097819B838A838A819B810C960E94B30ABF
:104690008091B806882361F58A819B8102960E94E9
:1046A000B30AEA81FB8196898091AE06891728F4C6
:1046B000EA81FB8186898093AE06EA81FB81868947
:1046C000282F30E0C901880F991F880F991F880F84
:1046D000991F820F931FAC014754594F8A819B81C8
:1046E0009C012E5F3F4FCA01B9010E94030A0AC014
:1046F0008A819B819C01245F3F4F8CEF96E0B9013A
:104700000E94030AEA81FB819689E091A806F09154
:10471000A9068689891730F481E0898381E0809336
:10472000B10601C0198289810F900F900F900F90F0
:104730000F90CF91DF910895DF93CF9300D000D0F9
:1047400000D0CDB7DEB79C838B837E836D838D8154
:104750009E819068EB81FC8191838083EB81FC8159
:10476000868197819A8389838B819C810E94B30A79
:1047700089819A8102960E94B30AE981FA81968919
:104780008091AE06891728F4E981FA8186898093A1
:10479000AE06E981FA818689282F30E0C901880FA9
:1047A000991F880F991F880F991F820F931FAC01C3
:1047B0004754594F89819A819C012E5F3F4FCA010E
:1047C000B9010E94030AE981FA819689E091A8065D
:1047D000F091A9068689891718F481E08093B106C3
:1047E00026960FB6F894DEBF0FBECDBFCF91DF91F6
:1047F0000895DF93CF9300D0CDB7DEB79A83898336
:104800000FB6F8940F928091B206E981FA81808305
:104810008091AC069091AD06E981FA819283818303
:104820000F900FBE0F900F90CF91DF910895DF93FF
:10483000CF9300D0CDB7DEB79A8389838091B2063B
:10484000E981FA8180838091AC069091AD06E9817F
:10485000FA81928381830F900F90CF91DF91089519
:10486000DF93CF93CDB7DEB729970FB6F894DEBFAD
:104870000FBECDBF9F838E83798768870FB6F8946C
:104880000F928091AC069091AD069C838B83EE8154
:10489000FF81218132818B819C81821B930B9A83C2
:1048A0008983E885F985808191812FEF8F3F920779
:1048B00011F41D8236C0EE81FF8190818091B20695
:1048C000981761F0EE81FF81218132818B819C817B
:1048D0008217930718F081E08D8323C0E885F9855E
:1048E0002081318189819A8182179307A0F4E8851C
:1048F000F9852081318189819A81A901481B590B51
:10490000CA01E885F985918380838E819F810E9409
:1049100017241D8206C0E885F9851182108281E086
:104920008D830F900FBE8D8129960FB6F894DEBF50
:104930000FBECDBFCF91DF910895DF93CF93CDB759
:10494000DEB781E08093B106CF91DF910895DF93C8
:10495000CF9300D0CDB7DEB79A8389830E94F2242B
:10496000FDCFDF93CF930F92CDB7DEB7198213C07F
:104970008981282F30E0C901880F991F880F991F5E
:10498000880F991F820F931F8754994F0E94C9095E
:1049900089818F5F89838981853050F386EE96E027
:1049A0000E94C9098FEE96E00E94C9098CEF96E03B
:1049B0000E94C90985E097E00E94C9098EE097E04E
:1049C0000E94C90986EE96E09093F9068093F80656
:1049D0008FEE96E09093FB068093FA060F90CF91AE
:1049E000DF910895DF93CF9300D0CDB7DEB720C01D
:1049F0000FB6F8940F92E0910A07F0910B078681A9
:104A000097819A83898389819A8102960E94B30A49
:104A10008091AB0681508093AB068091AA068150AD
:104A20008093AA060F900FBE89819A810E9421254A
:104A30008091AA068823E1F60F900F90CF91DF9125
:104A40000895DF93CF9300D0CDB7DEB79A838983E3
:104A5000E981FA818789908D0E941A0889819A815B
:104A60000E941A080F900F90CF91DF910895DF9365
:104A7000CF9300D0CDB7DEB7E091F806F091F906FC
:104A80008081882339F48FEF9FEF9093B506809350
:104A9000B40613C0E091F806F091F9060580F6819E
:104AA000E02D868197819A838983E981FA818281C9
:104AB00093819093B5068093B4060F900F90CF9199
:104AC000DF910895DF93CF9300D0CDB7DEB780910B
:104AD000A8069091A9069A83898389819A810F906B
:104AE0000F90CF91DF910895DF93CF9300D0CDB792
:104AF000DEB7E091A806F091A906848595859A8392
:104B00008983A091A806B091A906E091A806F0912A
:104B1000A9068689282F30E085E090E0821B930B60
:104B20001D969C938E931C9789819A810F900F906C
:104B3000CF91DF910895DF93CF93CDB7DEB727975D
:104B40000FB6F894DEBF0FBECDBF8D837F836E831B
:104B50000FB6F8940F92E091A806F091A90681A1F2
:104B600092A1A3A1B4A10097A105B10589F4E09198
:104B7000A806F091A90681E085A38E819F81009708
:104B800039F08E819F8161E00E9443290E94DB0CF5
:104B90000F900FBE0FB6F8940F92E091A806F09117
:104BA000A90681A192A1A3A1B4A189839A83AB8311
:104BB000BC8389819A81AB81BC810097A105B10535
:104BC000D9F08D81882349F0E091A806F091A906DB
:104BD00011A212A213A214A20FC0E091A806F09194
:104BE000A90689819A81AB81BC810197A109B1098C
:104BF00081A392A3A3A3B4A3E091A806F091A90670
:104C000015A20F900FBE89819A81AB81BC81BC0136
:104C1000CD0127960FB6F894DEBF0FBECDBFCF9162
:104C2000DF910895EF92FF920F931F93DF93CF933D
:104C3000CDB7DEB72D970FB6F894DEBF0FBECDBF50
:104C40006A837B838C839D832E833F834887598728
:104C50001B870A87FD86EC860FB6F8940F92E091C9
:104C6000A806F091A90685A1823049F1E091A80635
:104C7000F091A90621A132A143A154A18A819B816F
:104C8000AC81BD8180959095A095B09582239323AA
:104C9000A423B52381A392A3A3A3B4A3E091A80660
:104CA000F091A90681E085A38C859D85009739F058
:104CB0008C859D8561E00E9443290E94DB0C0F904A
:104CC0000FBE0FB6F8940F928A859B85009771F0FE
:104CD000E091A806F091A90681A192A1A3A1B4A197
:104CE000EA85FB8580839183A283B383E091A80644
:104CF000F091A90685A1823011F019821AC0E091C5
:104D0000A806F091A90621A132A143A154A18E8148
:104D10009F81A885B98580959095A095B0958223AF
:104D20009323A423B52381A392A3A3A3B4A381E0D7
:104D30008983E091A806F091A90615A20F900FBEF5
:104D400089812D960FB6F894DEBF0FBECDBFCF91EF
:104D5000DF911F910F91FF90EF9008950F931F9394
:104D6000DF93CF93CDB7DEB72F970FB6F894DEBFA2
:104D70000FBECDBF9E838D834F83588769877A8707
:104D80002B871D870C8781E08A838D819E819C8380
:104D90008B830FB6F8940F928C859D85009761F0F8
:104DA000EB81FC8181A192A1A3A1B4A1EC85FD8539
:104DB00080839183A283B383EB81FC8185A1898366
:104DC000EB81FC8182E085A38B85282F30E03F8733
:104DD0002E878E859F858230910559F12E853F85DE
:104DE0002330310534F48E859F858130910561F043
:104DF0004AC02E853F852330310559F18E859F8528
:104E00008430910589F13FC0EB81FC8121A132A161
:104E100043A154A18F819885A985BA85822B932BB4
:104E2000A42BB52BEB81FC8181A392A3A3A3B4A3F4
:104E30002AC0EB81FC8181A192A1A3A1B4A101961A
:104E4000A11DB11DEB81FC8181A392A3A3A3B4A3F7
:104E50001AC0EB81FC818F819885A985BA8581A3D1
:104E600092A3A3A3B4A30FC08981823059F0EB8130
:104E7000FC818F819885A985BA8581A392A3A3A37C
:104E8000B4A301C01A8289818130B9F58B819C81DC
:104E900002960E94B30AEB81FC8196898091AE064E
:104EA000891728F4EB81FC8186898093AE06EB811B
:104EB000FC818689282F30E0C901880F991F880F4F
:104EC000991F880F991F820F931FAC014754594FA8
:104ED0008B819C819C012E5F3F4FCA01B9010E94CA
:104EE000030AEB81FC819689E091A806F091A9065E
:104EF0008689891710F40E94DB0C0F900FBE8A81FF
:104F00002F960FB6F894DEBF0FBECDBFCF91DF91C5
:104F10001F910F910895EF92FF920F931F93DF93CC
:104F2000CF93CDB7DEB762970FB6F894DEBF0FBE52
:104F3000CDBF9F838E83488759876A877B872C875D
:104F40001E870D87F88AEF8681E08A838E819F8194
:104F50009D838C8319828D859E85009761F0EC81FD
:104F6000FD8181A192A1A3A1B4A1ED85FE858083DD
:104F70009183A283B383EC81FD8185A18B83EC8136
:104F8000FD8182E085A38C85282F30E03A8B298B28
:104F900089899A898230910559F129893A89233082
:104FA000310534F489899A898130910561F04AC0CC
:104FB00029893A892330310559F189899A898430C0
:104FC000910589F13FC0EC81FD8121A132A143A16E
:104FD00054A188859985AA85BB85822B932BA42B08
:104FE000B52BEC81FD8181A392A3A3A3B4A32AC016
:104FF000EC81FD8181A192A1A3A1B4A10196A11D83
:10500000B11DEC81FD8181A392A3A3A3B4A31AC017
:10501000EC81FD8188859985AA85BB8581A392A3B2
:10502000A3A3B4A30FC08B81823059F0EC81FD8122
:1050300088859985AA85BB8581A392A3A3A3B4A3E0
:1050400001C01A828B81813009F04FC08091B8066F
:10505000882361F58C819D8102960E94B30AEC81C0
:10506000FD8196898091AE06891728F4EC81FD8137
:1050700086898093AE06EC81FD818689282F30E0F9
:10508000C901880F991F880F991F880F991F820FD8
:10509000931FAC014754594F8C819D819C012E5F19
:1050A0003F4FCA01B9010E94030A0AC08C819D8149
:1050B0009C01245F3F4F8CEF96E0B9010E94030AE8
:1050C000EC81FD819689E091A806F091A906868978
:1050D000891758F48F859889009721F0EF85F88912
:1050E00081E0808381E08093B1068A8162960FB669
:1050F000F894DEBF0FBECDBFCF91DF911F910F910E
:10510000FF90EF900895DF93CF93CDB7DEB7289748
:105110000FB6F894DEBF0FBECDBF9E838D83788718
:105120006F838D819E819C838B831982EB81FC81AF
:1051300085A18A83EB81FC8182E085A3EB81FC81E0
:1051400081A192A1A3A1B4A10196A11DB11DEB81E2
:10515000FC8181A392A3A3A3B4A38A81813009F027
:105160004FC08091B806882361F58B819C8102969F
:105170000E94B30AEB81FC8196898091AE06891763
:1051800028F4EB81FC8186898093AE06EB81FC815B
:105190008689282F30E0C901880F991F880F991F31
:1051A000880F991F820F931FAC014754594F8B8171
:1051B0009C819C012E5F3F4FCA01B9010E94030AE6
:1051C0000AC08B819C819C01245F3F4F8CEF96E04D
:1051D000B9010E94030AEB81FC819689E091A8063F
:1051E000F091A9068689891758F48F8198850097D0
:1051F00021F0EF81F88581E0808381E08093B10622
:1052000028960FB6F894DEBF0FBECDBFCF91DF91C9
:105210000895DF93CF93CDB7DEB727970FB6F894F5
:10522000DEBF0FBECDBF9D838C838C819D81009797
:1052300039F48091A8069091A9069F838E8304C0BB
:105240008C819D819F838E838E819F819B838A83A6
:105250000FB6F8940F92EA81FB8185A1823031F478
:10526000EA81FB8115A281E0898301C019820F9038
:105270000FBE898127960FB6F894DEBF0FBECDBF53
:10528000CF91DF910895DF93CF93CDB7DEB7279706
:105290000FB6F894DEBF0FBECDBF9E838D836F83A4
:1052A0008091AC069091AD069A8389838091A8067F
:1052B0009091A90602960E94B30A8D819E812FEFDC
:1052C0008F3F920781F48F81882369F08091A8062F
:1052D0009091A9069C012E5F3F4F8EE097E0B901A7
:1052E0000E94030A43C029813A818D819E81820FE9
:1052F000931F9C838B83E091A806F091A9068B8174
:105300009C81938382832B813C8189819A81281798
:10531000390770F48091FA069091FB062091A80657
:105320003091A9062E5F3F4FB9010E94470A1EC067
:105330004091F8065091F9068091A8069091A9062F
:105340009C012E5F3F4FCA01B9010E94470A20917C
:10535000B4063091B5068B819C818217930730F497
:105360008B819C819093B5068093B40627960FB6E7
:10537000F894DEBF0FBECDBFCF91DF910895FB0142
:10538000DC0102C001900D9241505040D8F70895C1
:10539000DC0101C06D9341505040E0F70895F8944E
:0253A000FFCF3D
:1053A200496E69745461736B73005075736842750A
:1053B20074746F6E5F5461736B004C43445F54614D
:1053C200736B0053656E6448616C6C6F5F546173FC
:1053D2006B004F766572205772697474656E212175
:1053E20021210048656C6C6F204C43442021210030
:1053F200496E69745F5461736B0049444C45000007
:00000001FF
